{
  "_format": "hh-sol-artifact-1",
  "contractName": "UpgradeERC20UUPSV3",
  "sourceName": "contracts/upgradeable/UpgradeERC20UUPS/UpgradeERC20UUPSV3.sol",
  "abi": [
    {
      "anonymous": false,
      "inputs": [
        {
          "indexed": false,
          "internalType": "address",
          "name": "previousAdmin",
          "type": "address"
        },
        {
          "indexed": false,
          "internalType": "address",
          "name": "newAdmin",
          "type": "address"
        }
      ],
      "name": "AdminChanged",
      "type": "event"
    },
    {
      "anonymous": false,
      "inputs": [
        {
          "indexed": true,
          "internalType": "address",
          "name": "owner",
          "type": "address"
        },
        {
          "indexed": true,
          "internalType": "address",
          "name": "spender",
          "type": "address"
        },
        {
          "indexed": false,
          "internalType": "uint256",
          "name": "value",
          "type": "uint256"
        }
      ],
      "name": "Approval",
      "type": "event"
    },
    {
      "anonymous": false,
      "inputs": [
        {
          "indexed": true,
          "internalType": "address",
          "name": "beacon",
          "type": "address"
        }
      ],
      "name": "BeaconUpgraded",
      "type": "event"
    },
    {
      "anonymous": false,
      "inputs": [
        {
          "indexed": false,
          "internalType": "uint8",
          "name": "version",
          "type": "uint8"
        }
      ],
      "name": "Initialized",
      "type": "event"
    },
    {
      "anonymous": false,
      "inputs": [
        {
          "indexed": true,
          "internalType": "address",
          "name": "previousOwner",
          "type": "address"
        },
        {
          "indexed": true,
          "internalType": "address",
          "name": "newOwner",
          "type": "address"
        }
      ],
      "name": "OwnershipTransferred",
      "type": "event"
    },
    {
      "anonymous": false,
      "inputs": [
        {
          "indexed": false,
          "internalType": "address",
          "name": "account",
          "type": "address"
        }
      ],
      "name": "Paused",
      "type": "event"
    },
    {
      "anonymous": false,
      "inputs": [
        {
          "indexed": true,
          "internalType": "address",
          "name": "from",
          "type": "address"
        },
        {
          "indexed": true,
          "internalType": "address",
          "name": "to",
          "type": "address"
        },
        {
          "indexed": false,
          "internalType": "uint256",
          "name": "value",
          "type": "uint256"
        }
      ],
      "name": "Transfer",
      "type": "event"
    },
    {
      "anonymous": false,
      "inputs": [
        {
          "indexed": false,
          "internalType": "address",
          "name": "account",
          "type": "address"
        }
      ],
      "name": "Unpaused",
      "type": "event"
    },
    {
      "anonymous": false,
      "inputs": [
        {
          "indexed": true,
          "internalType": "address",
          "name": "implementation",
          "type": "address"
        }
      ],
      "name": "Upgraded",
      "type": "event"
    },
    {
      "inputs": [
        {
          "internalType": "address",
          "name": "owner",
          "type": "address"
        },
        {
          "internalType": "address",
          "name": "spender",
          "type": "address"
        }
      ],
      "name": "allowance",
      "outputs": [
        {
          "internalType": "uint256",
          "name": "",
          "type": "uint256"
        }
      ],
      "stateMutability": "view",
      "type": "function"
    },
    {
      "inputs": [
        {
          "internalType": "address",
          "name": "spender",
          "type": "address"
        },
        {
          "internalType": "uint256",
          "name": "amount",
          "type": "uint256"
        }
      ],
      "name": "approve",
      "outputs": [
        {
          "internalType": "bool",
          "name": "",
          "type": "bool"
        }
      ],
      "stateMutability": "nonpayable",
      "type": "function"
    },
    {
      "inputs": [
        {
          "internalType": "address",
          "name": "account",
          "type": "address"
        }
      ],
      "name": "balanceOf",
      "outputs": [
        {
          "internalType": "uint256",
          "name": "",
          "type": "uint256"
        }
      ],
      "stateMutability": "view",
      "type": "function"
    },
    {
      "inputs": [],
      "name": "decimals",
      "outputs": [
        {
          "internalType": "uint8",
          "name": "",
          "type": "uint8"
        }
      ],
      "stateMutability": "view",
      "type": "function"
    },
    {
      "inputs": [
        {
          "internalType": "address",
          "name": "spender",
          "type": "address"
        },
        {
          "internalType": "uint256",
          "name": "subtractedValue",
          "type": "uint256"
        }
      ],
      "name": "decreaseAllowance",
      "outputs": [
        {
          "internalType": "bool",
          "name": "",
          "type": "bool"
        }
      ],
      "stateMutability": "nonpayable",
      "type": "function"
    },
    {
      "inputs": [
        {
          "internalType": "address",
          "name": "spender",
          "type": "address"
        },
        {
          "internalType": "uint256",
          "name": "addedValue",
          "type": "uint256"
        }
      ],
      "name": "increaseAllowance",
      "outputs": [
        {
          "internalType": "bool",
          "name": "",
          "type": "bool"
        }
      ],
      "stateMutability": "nonpayable",
      "type": "function"
    },
    {
      "inputs": [],
      "name": "initialize",
      "outputs": [],
      "stateMutability": "nonpayable",
      "type": "function"
    },
    {
      "inputs": [],
      "name": "name",
      "outputs": [
        {
          "internalType": "string",
          "name": "",
          "type": "string"
        }
      ],
      "stateMutability": "view",
      "type": "function"
    },
    {
      "inputs": [],
      "name": "owner",
      "outputs": [
        {
          "internalType": "address",
          "name": "",
          "type": "address"
        }
      ],
      "stateMutability": "view",
      "type": "function"
    },
    {
      "inputs": [],
      "name": "pause",
      "outputs": [],
      "stateMutability": "nonpayable",
      "type": "function"
    },
    {
      "inputs": [],
      "name": "paused",
      "outputs": [
        {
          "internalType": "bool",
          "name": "",
          "type": "bool"
        }
      ],
      "stateMutability": "view",
      "type": "function"
    },
    {
      "inputs": [],
      "name": "proxiableUUID",
      "outputs": [
        {
          "internalType": "bytes32",
          "name": "",
          "type": "bytes32"
        }
      ],
      "stateMutability": "view",
      "type": "function"
    },
    {
      "inputs": [],
      "name": "renounceOwnership",
      "outputs": [],
      "stateMutability": "nonpayable",
      "type": "function"
    },
    {
      "inputs": [],
      "name": "symbol",
      "outputs": [
        {
          "internalType": "string",
          "name": "",
          "type": "string"
        }
      ],
      "stateMutability": "view",
      "type": "function"
    },
    {
      "inputs": [],
      "name": "totalSupply",
      "outputs": [
        {
          "internalType": "uint256",
          "name": "",
          "type": "uint256"
        }
      ],
      "stateMutability": "view",
      "type": "function"
    },
    {
      "inputs": [
        {
          "internalType": "address",
          "name": "to",
          "type": "address"
        },
        {
          "internalType": "uint256",
          "name": "amount",
          "type": "uint256"
        }
      ],
      "name": "transfer",
      "outputs": [
        {
          "internalType": "bool",
          "name": "",
          "type": "bool"
        }
      ],
      "stateMutability": "nonpayable",
      "type": "function"
    },
    {
      "inputs": [
        {
          "internalType": "address",
          "name": "from",
          "type": "address"
        },
        {
          "internalType": "address",
          "name": "to",
          "type": "address"
        },
        {
          "internalType": "uint256",
          "name": "amount",
          "type": "uint256"
        }
      ],
      "name": "transferFrom",
      "outputs": [
        {
          "internalType": "bool",
          "name": "",
          "type": "bool"
        }
      ],
      "stateMutability": "nonpayable",
      "type": "function"
    },
    {
      "inputs": [
        {
          "internalType": "address",
          "name": "newOwner",
          "type": "address"
        }
      ],
      "name": "transferOwnership",
      "outputs": [],
      "stateMutability": "nonpayable",
      "type": "function"
    },
    {
      "inputs": [],
      "name": "unpause",
      "outputs": [],
      "stateMutability": "nonpayable",
      "type": "function"
    },
    {
      "inputs": [
        {
          "internalType": "address",
          "name": "newImplementation",
          "type": "address"
        }
      ],
      "name": "upgradeTo",
      "outputs": [],
      "stateMutability": "nonpayable",
      "type": "function"
    },
    {
      "inputs": [
        {
          "internalType": "address",
          "name": "newImplementation",
          "type": "address"
        },
        {
          "internalType": "bytes",
          "name": "data",
          "type": "bytes"
        }
      ],
      "name": "upgradeToAndCall",
      "outputs": [],
      "stateMutability": "payable",
      "type": "function"
    },
    {
      "inputs": [],
      "name": "upgradeToV2",
      "outputs": [],
      "stateMutability": "nonpayable",
      "type": "function"
    },
    {
      "inputs": [],
      "name": "upgradeToV3",
      "outputs": [],
      "stateMutability": "nonpayable",
      "type": "function"
    },
    {
      "inputs": [],
      "name": "version",
      "outputs": [
        {
          "internalType": "uint256",
          "name": "",
          "type": "uint256"
        }
      ],
      "stateMutability": "view",
      "type": "function"
    }
  ],
  "bytecode": "0x60a06040523060601b6080523480156200001857600080fd5b50620000236200002f565b600161012d556200015f565b6200003b60ff6200003e565b50565b60008054610100900460ff1615620000d7578160ff16600114801562000077575062000075306200015060201b62000b261760201c565b155b620000cf5760405162461bcd60e51b815260206004820152602e602482015260008051602062001cbf83398151915260448201526d191e481a5b9a5d1a585b1a5e995960921b60648201526084015b60405180910390fd5b506000919050565b60005460ff808416911610620001365760405162461bcd60e51b815260206004820152602e602482015260008051602062001cbf83398151915260448201526d191e481a5b9a5d1a585b1a5e995960921b6064820152608401620000c6565b506000805460ff191660ff92909216919091179055600190565b6001600160a01b03163b151590565b60805160601c611b256200019a600039600081816104eb015281816105340152818161062a0152818161066a01526106fd0152611b256000f3fe60806040526004361061014b5760003560e01c806370a08231116100b6578063a457c2d71161006f578063a457c2d714610366578063a9059cbb14610386578063b2116657146103a6578063cc01053e146103bb578063dd62ed3e146103d0578063f2fde38b146103f057600080fd5b806370a08231146102b4578063715018a6146102ea5780638129fc1c146102ff5780638456cb59146103145780638da5cb5b1461032957806395d89b411461035157600080fd5b8063395093511161010857806339509351146102285780633f4ba83a146102485780634f1ef2861461025d57806352d1902d1461027057806354fd4d50146102855780635c975abb1461029c57600080fd5b806306fdde0314610150578063095ea7b31461017b57806318160ddd146101ab57806323b872dd146101ca578063313ce567146101ea5780633659cfe614610206575b600080fd5b34801561015c57600080fd5b50610165610410565b604051610172919061186e565b60405180910390f35b34801561018757600080fd5b5061019b610196366004611811565b6104a2565b6040519015158152602001610172565b3480156101b757600080fd5b506035545b604051908152602001610172565b3480156101d657600080fd5b5061019b6101e5366004611719565b6104ba565b3480156101f657600080fd5b5060405160128152602001610172565b34801561021257600080fd5b506102266102213660046116cd565b6104e0565b005b34801561023457600080fd5b5061019b610243366004611811565b6105c9565b34801561025457600080fd5b506102266105eb565b61022661026b366004611754565b61061f565b34801561027c57600080fd5b506101bc6106f0565b34801561029157600080fd5b506101bc61012d5481565b3480156102a857600080fd5b5060655460ff1661019b565b3480156102c057600080fd5b506101bc6102cf3660046116cd565b6001600160a01b031660009081526033602052604090205490565b3480156102f657600080fd5b506102266107a3565b34801561030b57600080fd5b506102266107d7565b34801561032057600080fd5b506102266108ac565b34801561033557600080fd5b506097546040516001600160a01b039091168152602001610172565b34801561035d57600080fd5b506101656108de565b34801561037257600080fd5b5061019b610381366004611811565b6108ed565b34801561039257600080fd5b5061019b6103a1366004611811565b610973565b3480156103b257600080fd5b50610226610981565b3480156103c757600080fd5b506102266109f4565b3480156103dc57600080fd5b506101bc6103eb3660046116e7565b610a63565b3480156103fc57600080fd5b5061022661040b3660046116cd565b610a8e565b60606036805461041f90611a57565b80601f016020809104026020016040519081016040528092919081815260200182805461044b90611a57565b80156104985780601f1061046d57610100808354040283529160200191610498565b820191906000526020600020905b81548152906001019060200180831161047b57829003601f168201915b5050505050905090565b6000336104b0818585610b35565b5060019392505050565b6000336104c8858285610c59565b6104d3858585610cd3565b60019150505b9392505050565b306001600160a01b037f00000000000000000000000000000000000000000000000000000000000000001614156105325760405162461bcd60e51b8152600401610529906118a1565b60405180910390fd5b7f00000000000000000000000000000000000000000000000000000000000000006001600160a01b031661057b600080516020611aa9833981519152546001600160a01b031690565b6001600160a01b0316146105a15760405162461bcd60e51b8152600401610529906118ed565b6105aa81610eac565b604080516000808252602082019092526105c691839190610ed6565b50565b6000336104b08185856105dc8383610a63565b6105e69190611a07565b610b35565b6097546001600160a01b031633146106155760405162461bcd60e51b815260040161052990611987565b61061d611055565b565b306001600160a01b037f00000000000000000000000000000000000000000000000000000000000000001614156106685760405162461bcd60e51b8152600401610529906118a1565b7f00000000000000000000000000000000000000000000000000000000000000006001600160a01b03166106b1600080516020611aa9833981519152546001600160a01b031690565b6001600160a01b0316146106d75760405162461bcd60e51b8152600401610529906118ed565b6106e082610eac565b6106ec82826001610ed6565b5050565b6000306001600160a01b037f000000000000000000000000000000000000000000000000000000000000000016146107905760405162461bcd60e51b815260206004820152603860248201527f555550535570677261646561626c653a206d757374206e6f742062652063616c60448201527f6c6564207468726f7567682064656c656761746563616c6c00000000000000006064820152608401610529565b50600080516020611aa983398151915290565b6097546001600160a01b031633146107cd5760405162461bcd60e51b815260040161052990611987565b61061d60006110e8565b60006107e3600161113a565b905080156107fb576000805461ff0019166101001790555b61084c6040518060400160405280601281526020017155706772616465204552433230205555505360701b81525060405180604001604052806005815260200164554532305560d81b8152506111c7565b6108546111f8565b61085c611227565b610864611256565b80156105c6576000805461ff0019169055604051600181527f7f26b83ff96e1f2b6a682f133852f6798a09c465da95921460cefb38474024989060200160405180910390a150565b6097546001600160a01b031633146108d65760405162461bcd60e51b815260040161052990611987565b61061d61127d565b60606037805461041f90611a57565b600033816108fb8286610a63565b90508381101561095b5760405162461bcd60e51b815260206004820152602560248201527f45524332303a2064656372656173656420616c6c6f77616e63652062656c6f77604482015264207a65726f60d81b6064820152608401610529565b6109688286868403610b35565b506001949350505050565b6000336104b0818585610cd3565b600361012d54106109ec5760405162461bcd60e51b815260206004820152602f60248201527f557067726164654552433230555550533a20416c72656164792075706772616460448201526e656420746f2076657273696f6e203360881b6064820152608401610529565b600361012d55565b600261012d5410610a5b5760405162461bcd60e51b815260206004820152602b60248201527f44654875625374616b696e673a20416c7265616479207570677261646564207460448201526a6f2076657273696f6e203360a81b6064820152608401610529565b600261012d55565b6001600160a01b03918216600090815260346020908152604080832093909416825291909152205490565b6097546001600160a01b03163314610ab85760405162461bcd60e51b815260040161052990611987565b6001600160a01b038116610b1d5760405162461bcd60e51b815260206004820152602660248201527f4f776e61626c653a206e6577206f776e657220697320746865207a65726f206160448201526564647265737360d01b6064820152608401610529565b6105c6816110e8565b6001600160a01b03163b151590565b6001600160a01b038316610b975760405162461bcd60e51b8152602060048201526024808201527f45524332303a20617070726f76652066726f6d20746865207a65726f206164646044820152637265737360e01b6064820152608401610529565b6001600160a01b038216610bf85760405162461bcd60e51b815260206004820152602260248201527f45524332303a20617070726f766520746f20746865207a65726f206164647265604482015261737360f01b6064820152608401610529565b6001600160a01b0383811660008181526034602090815260408083209487168084529482529182902085905590518481527f8c5be1e5ebec7d5bd14f71427d1e84f3dd0314c0f7b2291e5b200ac8c7c3b925910160405180910390a3505050565b6000610c658484610a63565b90506000198114610ccd5781811015610cc05760405162461bcd60e51b815260206004820152601d60248201527f45524332303a20696e73756666696369656e7420616c6c6f77616e63650000006044820152606401610529565b610ccd8484848403610b35565b50505050565b6001600160a01b038316610d375760405162461bcd60e51b815260206004820152602560248201527f45524332303a207472616e736665722066726f6d20746865207a65726f206164604482015264647265737360d81b6064820152608401610529565b6001600160a01b038216610d995760405162461bcd60e51b815260206004820152602360248201527f45524332303a207472616e7366657220746f20746865207a65726f206164647260448201526265737360e81b6064820152608401610529565b610da48383836112f8565b6001600160a01b03831660009081526033602052604090205481811015610e1c5760405162461bcd60e51b815260206004820152602660248201527f45524332303a207472616e7366657220616d6f756e7420657863656564732062604482015265616c616e636560d01b6064820152608401610529565b6001600160a01b03808516600090815260336020526040808220858503905591851681529081208054849290610e53908490611a07565b92505081905550826001600160a01b0316846001600160a01b03167fddf252ad1be2c89b69c2b068fc378daa952ba7f163c4a11628f55a4df523b3ef84604051610e9f91815260200190565b60405180910390a3610ccd565b6097546001600160a01b031633146105c65760405162461bcd60e51b815260040161052990611987565b7f4910fdfa16fed3260ed0e7147f7cc6da11a60208b5b9406d12a635614ffd91435460ff1615610f0e57610f098361133e565b505050565b826001600160a01b03166352d1902d6040518163ffffffff1660e01b815260040160206040518083038186803b158015610f4757600080fd5b505afa925050508015610f77575060408051601f3d908101601f19168201909252610f749181019061183a565b60015b610fda5760405162461bcd60e51b815260206004820152602e60248201527f45524331393637557067726164653a206e657720696d706c656d656e7461746960448201526d6f6e206973206e6f74205555505360901b6064820152608401610529565b600080516020611aa983398151915281146110495760405162461bcd60e51b815260206004820152602960248201527f45524331393637557067726164653a20756e737570706f727465642070726f786044820152681a58589b195555525160ba1b6064820152608401610529565b50610f098383836113da565b60655460ff1661109e5760405162461bcd60e51b815260206004820152601460248201527314185d5cd8589b194e881b9bdd081c185d5cd95960621b6044820152606401610529565b6065805460ff191690557f5db9ee0a495bf2e6ff9c91a7834c1ba4fdd244a5e8aa4e537bd38aeae4b073aa335b6040516001600160a01b03909116815260200160405180910390a1565b609780546001600160a01b038381166001600160a01b0319831681179093556040519116919082907f8be0079c531659141344cd1fd0a4f28419497f9722a3daafe3b4186f6b6457e090600090a35050565b60008054610100900460ff1615611181578160ff16600114801561115d5750303b155b6111795760405162461bcd60e51b815260040161052990611939565b506000919050565b60005460ff8084169116106111a85760405162461bcd60e51b815260040161052990611939565b506000805460ff191660ff92909216919091179055600190565b919050565b600054610100900460ff166111ee5760405162461bcd60e51b8152600401610529906119bc565b6106ec82826113ff565b600054610100900460ff1661121f5760405162461bcd60e51b8152600401610529906119bc565b61061d61144d565b600054610100900460ff1661124e5760405162461bcd60e51b8152600401610529906119bc565b61061d611480565b600054610100900460ff1661061d5760405162461bcd60e51b8152600401610529906119bc565b60655460ff16156112c35760405162461bcd60e51b815260206004820152601060248201526f14185d5cd8589b194e881c185d5cd95960821b6044820152606401610529565b6065805460ff191660011790557f62e78cea01bee320cd4e420270b5ea74000d11b0c9f74754ebdbfc544b05a2586110cb3390565b60655460ff1615610f095760405162461bcd60e51b815260206004820152601060248201526f14185d5cd8589b194e881c185d5cd95960821b6044820152606401610529565b6001600160a01b0381163b6113ab5760405162461bcd60e51b815260206004820152602d60248201527f455243313936373a206e657720696d706c656d656e746174696f6e206973206e60448201526c1bdd08184818dbdb9d1c9858dd609a1b6064820152608401610529565b600080516020611aa983398151915280546001600160a01b0319166001600160a01b0392909216919091179055565b6113e3836114b0565b6000825111806113f05750805b15610f0957610ccd83836114f0565b600054610100900460ff166114265760405162461bcd60e51b8152600401610529906119bc565b815161143990603690602085019061161d565b508051610f0990603790602084019061161d565b600054610100900460ff166114745760405162461bcd60e51b8152600401610529906119bc565b6065805460ff19169055565b600054610100900460ff166114a75760405162461bcd60e51b8152600401610529906119bc565b61061d336110e8565b6114b98161133e565b6040516001600160a01b038216907fbc7cd75a20ee27fd9adebab32041f755214dbc6bffa90cc0225b39da2e5c2d3b90600090a250565b60606001600160a01b0383163b6115585760405162461bcd60e51b815260206004820152602660248201527f416464726573733a2064656c65676174652063616c6c20746f206e6f6e2d636f6044820152651b9d1c9858dd60d21b6064820152608401610529565b600080846001600160a01b0316846040516115739190611852565b600060405180830381855af49150503d80600081146115ae576040519150601f19603f3d011682016040523d82523d6000602084013e6115b3565b606091505b50915091506115db8282604051806060016040528060278152602001611ac9602791396115e4565b95945050505050565b606083156115f35750816104d9565b8251156116035782518084602001fd5b8160405162461bcd60e51b8152600401610529919061186e565b82805461162990611a57565b90600052602060002090601f01602090048101928261164b5760008555611691565b82601f1061166457805160ff1916838001178555611691565b82800160010185558215611691579182015b82811115611691578251825591602001919060010190611676565b5061169d9291506116a1565b5090565b5b8082111561169d57600081556001016116a2565b80356001600160a01b03811681146111c257600080fd5b6000602082840312156116de578081fd5b6104d9826116b6565b600080604083850312156116f9578081fd5b611702836116b6565b9150611710602084016116b6565b90509250929050565b60008060006060848603121561172d578081fd5b611736846116b6565b9250611744602085016116b6565b9150604084013590509250925092565b60008060408385031215611766578182fd5b61176f836116b6565b9150602083013567ffffffffffffffff8082111561178b578283fd5b818501915085601f83011261179e578283fd5b8135818111156117b0576117b0611a92565b604051601f8201601f19908116603f011681019083821181831017156117d8576117d8611a92565b816040528281528860208487010111156117f0578586fd5b82602086016020830137856020848301015280955050505050509250929050565b60008060408385031215611823578182fd5b61182c836116b6565b946020939093013593505050565b60006020828403121561184b578081fd5b5051919050565b60008251611864818460208701611a2b565b9190910192915050565b602081526000825180602084015261188d816040850160208701611a2b565b601f01601f19169190910160400192915050565b6020808252602c908201527f46756e6374696f6e206d7573742062652063616c6c6564207468726f7567682060408201526b19195b1959d85d1958d85b1b60a21b606082015260800190565b6020808252602c908201527f46756e6374696f6e206d7573742062652063616c6c6564207468726f7567682060408201526b6163746976652070726f787960a01b606082015260800190565b6020808252602e908201527f496e697469616c697a61626c653a20636f6e747261637420697320616c72656160408201526d191e481a5b9a5d1a585b1a5e995960921b606082015260800190565b6020808252818101527f4f776e61626c653a2063616c6c6572206973206e6f7420746865206f776e6572604082015260600190565b6020808252602b908201527f496e697469616c697a61626c653a20636f6e7472616374206973206e6f74206960408201526a6e697469616c697a696e6760a81b606082015260800190565b60008219821115611a2657634e487b7160e01b81526011600452602481fd5b500190565b60005b83811015611a46578181015183820152602001611a2e565b83811115610ccd5750506000910152565b600181811c90821680611a6b57607f821691505b60208210811415611a8c57634e487b7160e01b600052602260045260246000fd5b50919050565b634e487b7160e01b600052604160045260246000fdfe360894a13ba1a3210667c828492db98dca3e2076cc3735a920a3ca505d382bbc416464726573733a206c6f772d6c6576656c2064656c65676174652063616c6c206661696c6564a26469706673582212208e97672a4bc6a3b81e15933a6a478cf543465d2c39b3567caea65a4dbdefdcb264736f6c63430008040033496e697469616c697a61626c653a20636f6e747261637420697320616c726561",
  "linkReferences": {},
  "deployedLinkReferences": {}
}