{
  "_format": "hh-sol-artifact-1",
  "contractName": "UpgradeERC20UUPS",
  "sourceName": "contracts/upgradeable/UpgradeERC20UUPS/UpgradeERC20UUPS.sol",
  "abi": [
    {
      "inputs": [],
      "stateMutability": "nonpayable",
      "type": "constructor"
    },
    {
      "anonymous": false,
      "inputs": [
        {
          "indexed": false,
          "internalType": "address",
          "name": "previousAdmin",
          "type": "address"
        },
        {
          "indexed": false,
          "internalType": "address",
          "name": "newAdmin",
          "type": "address"
        }
      ],
      "name": "AdminChanged",
      "type": "event"
    },
    {
      "anonymous": false,
      "inputs": [
        {
          "indexed": true,
          "internalType": "address",
          "name": "owner",
          "type": "address"
        },
        {
          "indexed": true,
          "internalType": "address",
          "name": "spender",
          "type": "address"
        },
        {
          "indexed": false,
          "internalType": "uint256",
          "name": "value",
          "type": "uint256"
        }
      ],
      "name": "Approval",
      "type": "event"
    },
    {
      "anonymous": false,
      "inputs": [
        {
          "indexed": true,
          "internalType": "address",
          "name": "beacon",
          "type": "address"
        }
      ],
      "name": "BeaconUpgraded",
      "type": "event"
    },
    {
      "anonymous": false,
      "inputs": [
        {
          "indexed": false,
          "internalType": "uint8",
          "name": "version",
          "type": "uint8"
        }
      ],
      "name": "Initialized",
      "type": "event"
    },
    {
      "anonymous": false,
      "inputs": [
        {
          "indexed": true,
          "internalType": "address",
          "name": "previousOwner",
          "type": "address"
        },
        {
          "indexed": true,
          "internalType": "address",
          "name": "newOwner",
          "type": "address"
        }
      ],
      "name": "OwnershipTransferred",
      "type": "event"
    },
    {
      "anonymous": false,
      "inputs": [
        {
          "indexed": false,
          "internalType": "address",
          "name": "account",
          "type": "address"
        }
      ],
      "name": "Paused",
      "type": "event"
    },
    {
      "anonymous": false,
      "inputs": [
        {
          "indexed": true,
          "internalType": "address",
          "name": "from",
          "type": "address"
        },
        {
          "indexed": true,
          "internalType": "address",
          "name": "to",
          "type": "address"
        },
        {
          "indexed": false,
          "internalType": "uint256",
          "name": "value",
          "type": "uint256"
        }
      ],
      "name": "Transfer",
      "type": "event"
    },
    {
      "anonymous": false,
      "inputs": [
        {
          "indexed": false,
          "internalType": "address",
          "name": "account",
          "type": "address"
        }
      ],
      "name": "Unpaused",
      "type": "event"
    },
    {
      "anonymous": false,
      "inputs": [
        {
          "indexed": true,
          "internalType": "address",
          "name": "implementation",
          "type": "address"
        }
      ],
      "name": "Upgraded",
      "type": "event"
    },
    {
      "inputs": [
        {
          "internalType": "address",
          "name": "owner",
          "type": "address"
        },
        {
          "internalType": "address",
          "name": "spender",
          "type": "address"
        }
      ],
      "name": "allowance",
      "outputs": [
        {
          "internalType": "uint256",
          "name": "",
          "type": "uint256"
        }
      ],
      "stateMutability": "view",
      "type": "function"
    },
    {
      "inputs": [
        {
          "internalType": "address",
          "name": "spender",
          "type": "address"
        },
        {
          "internalType": "uint256",
          "name": "amount",
          "type": "uint256"
        }
      ],
      "name": "approve",
      "outputs": [
        {
          "internalType": "bool",
          "name": "",
          "type": "bool"
        }
      ],
      "stateMutability": "nonpayable",
      "type": "function"
    },
    {
      "inputs": [
        {
          "internalType": "address",
          "name": "account",
          "type": "address"
        }
      ],
      "name": "balanceOf",
      "outputs": [
        {
          "internalType": "uint256",
          "name": "",
          "type": "uint256"
        }
      ],
      "stateMutability": "view",
      "type": "function"
    },
    {
      "inputs": [],
      "name": "decimals",
      "outputs": [
        {
          "internalType": "uint8",
          "name": "",
          "type": "uint8"
        }
      ],
      "stateMutability": "view",
      "type": "function"
    },
    {
      "inputs": [
        {
          "internalType": "address",
          "name": "spender",
          "type": "address"
        },
        {
          "internalType": "uint256",
          "name": "subtractedValue",
          "type": "uint256"
        }
      ],
      "name": "decreaseAllowance",
      "outputs": [
        {
          "internalType": "bool",
          "name": "",
          "type": "bool"
        }
      ],
      "stateMutability": "nonpayable",
      "type": "function"
    },
    {
      "inputs": [
        {
          "internalType": "address",
          "name": "spender",
          "type": "address"
        },
        {
          "internalType": "uint256",
          "name": "addedValue",
          "type": "uint256"
        }
      ],
      "name": "increaseAllowance",
      "outputs": [
        {
          "internalType": "bool",
          "name": "",
          "type": "bool"
        }
      ],
      "stateMutability": "nonpayable",
      "type": "function"
    },
    {
      "inputs": [],
      "name": "initialize",
      "outputs": [],
      "stateMutability": "nonpayable",
      "type": "function"
    },
    {
      "inputs": [],
      "name": "name",
      "outputs": [
        {
          "internalType": "string",
          "name": "",
          "type": "string"
        }
      ],
      "stateMutability": "view",
      "type": "function"
    },
    {
      "inputs": [],
      "name": "owner",
      "outputs": [
        {
          "internalType": "address",
          "name": "",
          "type": "address"
        }
      ],
      "stateMutability": "view",
      "type": "function"
    },
    {
      "inputs": [],
      "name": "pause",
      "outputs": [],
      "stateMutability": "nonpayable",
      "type": "function"
    },
    {
      "inputs": [],
      "name": "paused",
      "outputs": [
        {
          "internalType": "bool",
          "name": "",
          "type": "bool"
        }
      ],
      "stateMutability": "view",
      "type": "function"
    },
    {
      "inputs": [],
      "name": "proxiableUUID",
      "outputs": [
        {
          "internalType": "bytes32",
          "name": "",
          "type": "bytes32"
        }
      ],
      "stateMutability": "view",
      "type": "function"
    },
    {
      "inputs": [],
      "name": "renounceOwnership",
      "outputs": [],
      "stateMutability": "nonpayable",
      "type": "function"
    },
    {
      "inputs": [],
      "name": "symbol",
      "outputs": [
        {
          "internalType": "string",
          "name": "",
          "type": "string"
        }
      ],
      "stateMutability": "view",
      "type": "function"
    },
    {
      "inputs": [],
      "name": "totalSupply",
      "outputs": [
        {
          "internalType": "uint256",
          "name": "",
          "type": "uint256"
        }
      ],
      "stateMutability": "view",
      "type": "function"
    },
    {
      "inputs": [
        {
          "internalType": "address",
          "name": "to",
          "type": "address"
        },
        {
          "internalType": "uint256",
          "name": "amount",
          "type": "uint256"
        }
      ],
      "name": "transfer",
      "outputs": [
        {
          "internalType": "bool",
          "name": "",
          "type": "bool"
        }
      ],
      "stateMutability": "nonpayable",
      "type": "function"
    },
    {
      "inputs": [
        {
          "internalType": "address",
          "name": "from",
          "type": "address"
        },
        {
          "internalType": "address",
          "name": "to",
          "type": "address"
        },
        {
          "internalType": "uint256",
          "name": "amount",
          "type": "uint256"
        }
      ],
      "name": "transferFrom",
      "outputs": [
        {
          "internalType": "bool",
          "name": "",
          "type": "bool"
        }
      ],
      "stateMutability": "nonpayable",
      "type": "function"
    },
    {
      "inputs": [
        {
          "internalType": "address",
          "name": "newOwner",
          "type": "address"
        }
      ],
      "name": "transferOwnership",
      "outputs": [],
      "stateMutability": "nonpayable",
      "type": "function"
    },
    {
      "inputs": [],
      "name": "unpause",
      "outputs": [],
      "stateMutability": "nonpayable",
      "type": "function"
    },
    {
      "inputs": [
        {
          "internalType": "address",
          "name": "newImplementation",
          "type": "address"
        }
      ],
      "name": "upgradeTo",
      "outputs": [],
      "stateMutability": "nonpayable",
      "type": "function"
    },
    {
      "inputs": [
        {
          "internalType": "address",
          "name": "newImplementation",
          "type": "address"
        },
        {
          "internalType": "bytes",
          "name": "data",
          "type": "bytes"
        }
      ],
      "name": "upgradeToAndCall",
      "outputs": [],
      "stateMutability": "payable",
      "type": "function"
    },
    {
      "inputs": [],
      "name": "version",
      "outputs": [
        {
          "internalType": "uint256",
          "name": "",
          "type": "uint256"
        }
      ],
      "stateMutability": "view",
      "type": "function"
    }
  ],
  "bytecode": "0x60a06040523060601b6080523480156200001857600080fd5b50620000236200002f565b600161012d556200015f565b6200003b60ff6200003e565b50565b60008054610100900460ff1615620000d7578160ff16600114801562000077575062000075306200015060201b62000a041760201c565b155b620000cf5760405162461bcd60e51b815260206004820152602e602482015260008051602062001b9d83398151915260448201526d191e481a5b9a5d1a585b1a5e995960921b60648201526084015b60405180910390fd5b506000919050565b60005460ff808416911610620001365760405162461bcd60e51b815260206004820152602e602482015260008051602062001b9d83398151915260448201526d191e481a5b9a5d1a585b1a5e995960921b6064820152608401620000c6565b506000805460ff191660ff92909216919091179055600190565b6001600160a01b03163b151590565b60805160601c611a036200019a600039600081816104ab015281816104f4015281816105ea0152818161062a01526106bd0152611a036000f3fe6080604052600436106101355760003560e01c80635c975abb116100ab5780638da5cb5b1161006f5780638da5cb5b1461031357806395d89b411461033b578063a457c2d714610350578063a9059cbb14610370578063dd62ed3e14610390578063f2fde38b146103b057600080fd5b80635c975abb1461028657806370a082311461029e578063715018a6146102d45780638129fc1c146102e95780638456cb59146102fe57600080fd5b80633659cfe6116100fd5780633659cfe6146101f057806339509351146102125780633f4ba83a146102325780634f1ef2861461024757806352d1902d1461025a57806354fd4d501461026f57600080fd5b806306fdde031461013a578063095ea7b31461016557806318160ddd1461019557806323b872dd146101b4578063313ce567146101d4575b600080fd5b34801561014657600080fd5b5061014f6103d0565b60405161015c919061174c565b60405180910390f35b34801561017157600080fd5b506101856101803660046116ef565b610462565b604051901515815260200161015c565b3480156101a157600080fd5b506035545b60405190815260200161015c565b3480156101c057600080fd5b506101856101cf3660046115f7565b61047a565b3480156101e057600080fd5b506040516012815260200161015c565b3480156101fc57600080fd5b5061021061020b3660046115ab565b6104a0565b005b34801561021e57600080fd5b5061018561022d3660046116ef565b610589565b34801561023e57600080fd5b506102106105ab565b610210610255366004611632565b6105df565b34801561026657600080fd5b506101a66106b0565b34801561027b57600080fd5b506101a661012d5481565b34801561029257600080fd5b5060655460ff16610185565b3480156102aa57600080fd5b506101a66102b93660046115ab565b6001600160a01b031660009081526033602052604090205490565b3480156102e057600080fd5b50610210610763565b3480156102f557600080fd5b50610210610797565b34801561030a57600080fd5b5061021061086c565b34801561031f57600080fd5b506097546040516001600160a01b03909116815260200161015c565b34801561034757600080fd5b5061014f61089e565b34801561035c57600080fd5b5061018561036b3660046116ef565b6108ad565b34801561037c57600080fd5b5061018561038b3660046116ef565b610933565b34801561039c57600080fd5b506101a66103ab3660046115c5565b610941565b3480156103bc57600080fd5b506102106103cb3660046115ab565b61096c565b6060603680546103df90611935565b80601f016020809104026020016040519081016040528092919081815260200182805461040b90611935565b80156104585780601f1061042d57610100808354040283529160200191610458565b820191906000526020600020905b81548152906001019060200180831161043b57829003601f168201915b5050505050905090565b600033610470818585610a13565b5060019392505050565b600033610488858285610b37565b610493858585610bb1565b60019150505b9392505050565b306001600160a01b037f00000000000000000000000000000000000000000000000000000000000000001614156104f25760405162461bcd60e51b81526004016104e99061177f565b60405180910390fd5b7f00000000000000000000000000000000000000000000000000000000000000006001600160a01b031661053b600080516020611987833981519152546001600160a01b031690565b6001600160a01b0316146105615760405162461bcd60e51b81526004016104e9906117cb565b61056a81610d8a565b6040805160008082526020820190925261058691839190610db4565b50565b60003361047081858561059c8383610941565b6105a691906118e5565b610a13565b6097546001600160a01b031633146105d55760405162461bcd60e51b81526004016104e990611865565b6105dd610f33565b565b306001600160a01b037f00000000000000000000000000000000000000000000000000000000000000001614156106285760405162461bcd60e51b81526004016104e99061177f565b7f00000000000000000000000000000000000000000000000000000000000000006001600160a01b0316610671600080516020611987833981519152546001600160a01b031690565b6001600160a01b0316146106975760405162461bcd60e51b81526004016104e9906117cb565b6106a082610d8a565b6106ac82826001610db4565b5050565b6000306001600160a01b037f000000000000000000000000000000000000000000000000000000000000000016146107505760405162461bcd60e51b815260206004820152603860248201527f555550535570677261646561626c653a206d757374206e6f742062652063616c60448201527f6c6564207468726f7567682064656c656761746563616c6c000000000000000060648201526084016104e9565b5060008051602061198783398151915290565b6097546001600160a01b0316331461078d5760405162461bcd60e51b81526004016104e990611865565b6105dd6000610fc6565b60006107a36001611018565b905080156107bb576000805461ff0019166101001790555b61080c6040518060400160405280601281526020017155706772616465204552433230205555505360701b81525060405180604001604052806005815260200164554532305560d81b8152506110a5565b6108146110d6565b61081c611105565b610824611134565b8015610586576000805461ff0019169055604051600181527f7f26b83ff96e1f2b6a682f133852f6798a09c465da95921460cefb38474024989060200160405180910390a150565b6097546001600160a01b031633146108965760405162461bcd60e51b81526004016104e990611865565b6105dd61115b565b6060603780546103df90611935565b600033816108bb8286610941565b90508381101561091b5760405162461bcd60e51b815260206004820152602560248201527f45524332303a2064656372656173656420616c6c6f77616e63652062656c6f77604482015264207a65726f60d81b60648201526084016104e9565b6109288286868403610a13565b506001949350505050565b600033610470818585610bb1565b6001600160a01b03918216600090815260346020908152604080832093909416825291909152205490565b6097546001600160a01b031633146109965760405162461bcd60e51b81526004016104e990611865565b6001600160a01b0381166109fb5760405162461bcd60e51b815260206004820152602660248201527f4f776e61626c653a206e6577206f776e657220697320746865207a65726f206160448201526564647265737360d01b60648201526084016104e9565b61058681610fc6565b6001600160a01b03163b151590565b6001600160a01b038316610a755760405162461bcd60e51b8152602060048201526024808201527f45524332303a20617070726f76652066726f6d20746865207a65726f206164646044820152637265737360e01b60648201526084016104e9565b6001600160a01b038216610ad65760405162461bcd60e51b815260206004820152602260248201527f45524332303a20617070726f766520746f20746865207a65726f206164647265604482015261737360f01b60648201526084016104e9565b6001600160a01b0383811660008181526034602090815260408083209487168084529482529182902085905590518481527f8c5be1e5ebec7d5bd14f71427d1e84f3dd0314c0f7b2291e5b200ac8c7c3b925910160405180910390a3505050565b6000610b438484610941565b90506000198114610bab5781811015610b9e5760405162461bcd60e51b815260206004820152601d60248201527f45524332303a20696e73756666696369656e7420616c6c6f77616e636500000060448201526064016104e9565b610bab8484848403610a13565b50505050565b6001600160a01b038316610c155760405162461bcd60e51b815260206004820152602560248201527f45524332303a207472616e736665722066726f6d20746865207a65726f206164604482015264647265737360d81b60648201526084016104e9565b6001600160a01b038216610c775760405162461bcd60e51b815260206004820152602360248201527f45524332303a207472616e7366657220746f20746865207a65726f206164647260448201526265737360e81b60648201526084016104e9565b610c828383836111d6565b6001600160a01b03831660009081526033602052604090205481811015610cfa5760405162461bcd60e51b815260206004820152602660248201527f45524332303a207472616e7366657220616d6f756e7420657863656564732062604482015265616c616e636560d01b60648201526084016104e9565b6001600160a01b03808516600090815260336020526040808220858503905591851681529081208054849290610d319084906118e5565b92505081905550826001600160a01b0316846001600160a01b03167fddf252ad1be2c89b69c2b068fc378daa952ba7f163c4a11628f55a4df523b3ef84604051610d7d91815260200190565b60405180910390a3610bab565b6097546001600160a01b031633146105865760405162461bcd60e51b81526004016104e990611865565b7f4910fdfa16fed3260ed0e7147f7cc6da11a60208b5b9406d12a635614ffd91435460ff1615610dec57610de78361121c565b505050565b826001600160a01b03166352d1902d6040518163ffffffff1660e01b815260040160206040518083038186803b158015610e2557600080fd5b505afa925050508015610e55575060408051601f3d908101601f19168201909252610e5291810190611718565b60015b610eb85760405162461bcd60e51b815260206004820152602e60248201527f45524331393637557067726164653a206e657720696d706c656d656e7461746960448201526d6f6e206973206e6f74205555505360901b60648201526084016104e9565b6000805160206119878339815191528114610f275760405162461bcd60e51b815260206004820152602960248201527f45524331393637557067726164653a20756e737570706f727465642070726f786044820152681a58589b195555525160ba1b60648201526084016104e9565b50610de78383836112b8565b60655460ff16610f7c5760405162461bcd60e51b815260206004820152601460248201527314185d5cd8589b194e881b9bdd081c185d5cd95960621b60448201526064016104e9565b6065805460ff191690557f5db9ee0a495bf2e6ff9c91a7834c1ba4fdd244a5e8aa4e537bd38aeae4b073aa335b6040516001600160a01b03909116815260200160405180910390a1565b609780546001600160a01b038381166001600160a01b0319831681179093556040519116919082907f8be0079c531659141344cd1fd0a4f28419497f9722a3daafe3b4186f6b6457e090600090a35050565b60008054610100900460ff161561105f578160ff16600114801561103b5750303b155b6110575760405162461bcd60e51b81526004016104e990611817565b506000919050565b60005460ff8084169116106110865760405162461bcd60e51b81526004016104e990611817565b506000805460ff191660ff92909216919091179055600190565b919050565b600054610100900460ff166110cc5760405162461bcd60e51b81526004016104e99061189a565b6106ac82826112dd565b600054610100900460ff166110fd5760405162461bcd60e51b81526004016104e99061189a565b6105dd61132b565b600054610100900460ff1661112c5760405162461bcd60e51b81526004016104e99061189a565b6105dd61135e565b600054610100900460ff166105dd5760405162461bcd60e51b81526004016104e99061189a565b60655460ff16156111a15760405162461bcd60e51b815260206004820152601060248201526f14185d5cd8589b194e881c185d5cd95960821b60448201526064016104e9565b6065805460ff191660011790557f62e78cea01bee320cd4e420270b5ea74000d11b0c9f74754ebdbfc544b05a258610fa93390565b60655460ff1615610de75760405162461bcd60e51b815260206004820152601060248201526f14185d5cd8589b194e881c185d5cd95960821b60448201526064016104e9565b6001600160a01b0381163b6112895760405162461bcd60e51b815260206004820152602d60248201527f455243313936373a206e657720696d706c656d656e746174696f6e206973206e60448201526c1bdd08184818dbdb9d1c9858dd609a1b60648201526084016104e9565b60008051602061198783398151915280546001600160a01b0319166001600160a01b0392909216919091179055565b6112c18361138e565b6000825111806112ce5750805b15610de757610bab83836113ce565b600054610100900460ff166113045760405162461bcd60e51b81526004016104e99061189a565b81516113179060369060208501906114fb565b508051610de79060379060208401906114fb565b600054610100900460ff166113525760405162461bcd60e51b81526004016104e99061189a565b6065805460ff19169055565b600054610100900460ff166113855760405162461bcd60e51b81526004016104e99061189a565b6105dd33610fc6565b6113978161121c565b6040516001600160a01b038216907fbc7cd75a20ee27fd9adebab32041f755214dbc6bffa90cc0225b39da2e5c2d3b90600090a250565b60606001600160a01b0383163b6114365760405162461bcd60e51b815260206004820152602660248201527f416464726573733a2064656c65676174652063616c6c20746f206e6f6e2d636f6044820152651b9d1c9858dd60d21b60648201526084016104e9565b600080846001600160a01b0316846040516114519190611730565b600060405180830381855af49150503d806000811461148c576040519150601f19603f3d011682016040523d82523d6000602084013e611491565b606091505b50915091506114b982826040518060600160405280602781526020016119a7602791396114c2565b95945050505050565b606083156114d1575081610499565b8251156114e15782518084602001fd5b8160405162461bcd60e51b81526004016104e9919061174c565b82805461150790611935565b90600052602060002090601f016020900481019282611529576000855561156f565b82601f1061154257805160ff191683800117855561156f565b8280016001018555821561156f579182015b8281111561156f578251825591602001919060010190611554565b5061157b92915061157f565b5090565b5b8082111561157b5760008155600101611580565b80356001600160a01b03811681146110a057600080fd5b6000602082840312156115bc578081fd5b61049982611594565b600080604083850312156115d7578081fd5b6115e083611594565b91506115ee60208401611594565b90509250929050565b60008060006060848603121561160b578081fd5b61161484611594565b925061162260208501611594565b9150604084013590509250925092565b60008060408385031215611644578182fd5b61164d83611594565b9150602083013567ffffffffffffffff80821115611669578283fd5b818501915085601f83011261167c578283fd5b81358181111561168e5761168e611970565b604051601f8201601f19908116603f011681019083821181831017156116b6576116b6611970565b816040528281528860208487010111156116ce578586fd5b82602086016020830137856020848301015280955050505050509250929050565b60008060408385031215611701578182fd5b61170a83611594565b946020939093013593505050565b600060208284031215611729578081fd5b5051919050565b60008251611742818460208701611909565b9190910192915050565b602081526000825180602084015261176b816040850160208701611909565b601f01601f19169190910160400192915050565b6020808252602c908201527f46756e6374696f6e206d7573742062652063616c6c6564207468726f7567682060408201526b19195b1959d85d1958d85b1b60a21b606082015260800190565b6020808252602c908201527f46756e6374696f6e206d7573742062652063616c6c6564207468726f7567682060408201526b6163746976652070726f787960a01b606082015260800190565b6020808252602e908201527f496e697469616c697a61626c653a20636f6e747261637420697320616c72656160408201526d191e481a5b9a5d1a585b1a5e995960921b606082015260800190565b6020808252818101527f4f776e61626c653a2063616c6c6572206973206e6f7420746865206f776e6572604082015260600190565b6020808252602b908201527f496e697469616c697a61626c653a20636f6e7472616374206973206e6f74206960408201526a6e697469616c697a696e6760a81b606082015260800190565b6000821982111561190457634e487b7160e01b81526011600452602481fd5b500190565b60005b8381101561192457818101518382015260200161190c565b83811115610bab5750506000910152565b600181811c9082168061194957607f821691505b6020821081141561196a57634e487b7160e01b600052602260045260246000fd5b50919050565b634e487b7160e01b600052604160045260246000fdfe360894a13ba1a3210667c828492db98dca3e2076cc3735a920a3ca505d382bbc416464726573733a206c6f772d6c6576656c2064656c65676174652063616c6c206661696c6564a2646970667358221220f876c7dabf2b17b482983835115255384b63c11884c5e8a3337b92f10c43142764736f6c63430008040033496e697469616c697a61626c653a20636f6e747261637420697320616c726561",
  "linkReferences": {},
  "deployedLinkReferences": {}
}