{
  "_format": "hh-sol-artifact-1",
  "contractName": "UpgradeERC20TransparentV2",
  "sourceName": "contracts/upgradeable/UpgradeERC20Transparent/UpgradeERC20TransparentV2.sol",
  "abi": [
    {
      "anonymous": false,
      "inputs": [
        {
          "indexed": true,
          "internalType": "address",
          "name": "owner",
          "type": "address"
        },
        {
          "indexed": true,
          "internalType": "address",
          "name": "spender",
          "type": "address"
        },
        {
          "indexed": false,
          "internalType": "uint256",
          "name": "value",
          "type": "uint256"
        }
      ],
      "name": "Approval",
      "type": "event"
    },
    {
      "anonymous": false,
      "inputs": [
        {
          "indexed": false,
          "internalType": "uint8",
          "name": "version",
          "type": "uint8"
        }
      ],
      "name": "Initialized",
      "type": "event"
    },
    {
      "anonymous": false,
      "inputs": [
        {
          "indexed": true,
          "internalType": "address",
          "name": "previousOwner",
          "type": "address"
        },
        {
          "indexed": true,
          "internalType": "address",
          "name": "newOwner",
          "type": "address"
        }
      ],
      "name": "OwnershipTransferred",
      "type": "event"
    },
    {
      "anonymous": false,
      "inputs": [
        {
          "indexed": true,
          "internalType": "address",
          "name": "from",
          "type": "address"
        },
        {
          "indexed": true,
          "internalType": "address",
          "name": "to",
          "type": "address"
        },
        {
          "indexed": false,
          "internalType": "uint256",
          "name": "value",
          "type": "uint256"
        }
      ],
      "name": "Transfer",
      "type": "event"
    },
    {
      "inputs": [
        {
          "internalType": "address",
          "name": "owner",
          "type": "address"
        },
        {
          "internalType": "address",
          "name": "spender",
          "type": "address"
        }
      ],
      "name": "allowance",
      "outputs": [
        {
          "internalType": "uint256",
          "name": "",
          "type": "uint256"
        }
      ],
      "stateMutability": "view",
      "type": "function"
    },
    {
      "inputs": [
        {
          "internalType": "address",
          "name": "spender",
          "type": "address"
        },
        {
          "internalType": "uint256",
          "name": "amount",
          "type": "uint256"
        }
      ],
      "name": "approve",
      "outputs": [
        {
          "internalType": "bool",
          "name": "",
          "type": "bool"
        }
      ],
      "stateMutability": "nonpayable",
      "type": "function"
    },
    {
      "inputs": [
        {
          "internalType": "address",
          "name": "account",
          "type": "address"
        }
      ],
      "name": "balanceOf",
      "outputs": [
        {
          "internalType": "uint256",
          "name": "",
          "type": "uint256"
        }
      ],
      "stateMutability": "view",
      "type": "function"
    },
    {
      "inputs": [],
      "name": "decimals",
      "outputs": [
        {
          "internalType": "uint8",
          "name": "",
          "type": "uint8"
        }
      ],
      "stateMutability": "view",
      "type": "function"
    },
    {
      "inputs": [
        {
          "internalType": "address",
          "name": "spender",
          "type": "address"
        },
        {
          "internalType": "uint256",
          "name": "subtractedValue",
          "type": "uint256"
        }
      ],
      "name": "decreaseAllowance",
      "outputs": [
        {
          "internalType": "bool",
          "name": "",
          "type": "bool"
        }
      ],
      "stateMutability": "nonpayable",
      "type": "function"
    },
    {
      "inputs": [
        {
          "internalType": "address",
          "name": "spender",
          "type": "address"
        },
        {
          "internalType": "uint256",
          "name": "addedValue",
          "type": "uint256"
        }
      ],
      "name": "increaseAllowance",
      "outputs": [
        {
          "internalType": "bool",
          "name": "",
          "type": "bool"
        }
      ],
      "stateMutability": "nonpayable",
      "type": "function"
    },
    {
      "inputs": [],
      "name": "initialize",
      "outputs": [],
      "stateMutability": "nonpayable",
      "type": "function"
    },
    {
      "inputs": [],
      "name": "name",
      "outputs": [
        {
          "internalType": "string",
          "name": "",
          "type": "string"
        }
      ],
      "stateMutability": "view",
      "type": "function"
    },
    {
      "inputs": [],
      "name": "owner",
      "outputs": [
        {
          "internalType": "address",
          "name": "",
          "type": "address"
        }
      ],
      "stateMutability": "view",
      "type": "function"
    },
    {
      "inputs": [],
      "name": "renounceOwnership",
      "outputs": [],
      "stateMutability": "nonpayable",
      "type": "function"
    },
    {
      "inputs": [],
      "name": "symbol",
      "outputs": [
        {
          "internalType": "string",
          "name": "",
          "type": "string"
        }
      ],
      "stateMutability": "view",
      "type": "function"
    },
    {
      "inputs": [],
      "name": "totalSupply",
      "outputs": [
        {
          "internalType": "uint256",
          "name": "",
          "type": "uint256"
        }
      ],
      "stateMutability": "view",
      "type": "function"
    },
    {
      "inputs": [
        {
          "internalType": "address",
          "name": "to",
          "type": "address"
        },
        {
          "internalType": "uint256",
          "name": "amount",
          "type": "uint256"
        }
      ],
      "name": "transfer",
      "outputs": [
        {
          "internalType": "bool",
          "name": "",
          "type": "bool"
        }
      ],
      "stateMutability": "nonpayable",
      "type": "function"
    },
    {
      "inputs": [
        {
          "internalType": "address",
          "name": "from",
          "type": "address"
        },
        {
          "internalType": "address",
          "name": "to",
          "type": "address"
        },
        {
          "internalType": "uint256",
          "name": "amount",
          "type": "uint256"
        }
      ],
      "name": "transferFrom",
      "outputs": [
        {
          "internalType": "bool",
          "name": "",
          "type": "bool"
        }
      ],
      "stateMutability": "nonpayable",
      "type": "function"
    },
    {
      "inputs": [
        {
          "internalType": "address",
          "name": "newOwner",
          "type": "address"
        }
      ],
      "name": "transferOwnership",
      "outputs": [],
      "stateMutability": "nonpayable",
      "type": "function"
    },
    {
      "inputs": [],
      "name": "upgradeToV2",
      "outputs": [],
      "stateMutability": "nonpayable",
      "type": "function"
    },
    {
      "inputs": [],
      "name": "version",
      "outputs": [
        {
          "internalType": "uint256",
          "name": "",
          "type": "uint256"
        }
      ],
      "stateMutability": "view",
      "type": "function"
    }
  ],
  "bytecode": "0x608060405234801561001057600080fd5b5061001961001e565b610144565b61002860ff61002b565b50565b60008054610100900460ff16156100be578160ff16600114801561005f575061005d3061013560201b6106631760201c565b155b6100b65760405162461bcd60e51b815260206004820152602e602482015260008051602062000fe083398151915260448201526d191e481a5b9a5d1a585b1a5e995960921b60648201526084015b60405180910390fd5b506000919050565b60005460ff80841691161061011b5760405162461bcd60e51b815260206004820152602e602482015260008051602062000fe083398151915260448201526d191e481a5b9a5d1a585b1a5e995960921b60648201526084016100ad565b506000805460ff191660ff92909216919091179055600190565b6001600160a01b03163b151590565b610e8c80620001546000396000f3fe608060405234801561001057600080fd5b506004361061010b5760003560e01c8063715018a6116100a2578063a457c2d711610071578063a457c2d7146101ff578063a9059cbb14610212578063cc01053e14610225578063dd62ed3e1461022d578063f2fde38b1461024057600080fd5b8063715018a6146101ca5780638129fc1c146101d45780638da5cb5b146101dc57806395d89b41146101f757600080fd5b8063313ce567116100de578063313ce56714610176578063395093511461018557806354fd4d501461019857806370a08231146101a157600080fd5b806306fdde0314610110578063095ea7b31461012e57806318160ddd1461015157806323b872dd14610163575b600080fd5b610118610253565b6040516101259190610d0b565b60405180910390f35b61014161013c366004610ce2565b6102e5565b6040519015158152602001610125565b6035545b604051908152602001610125565b610141610171366004610ca7565b6102fd565b60405160128152602001610125565b610141610193366004610ce2565b610321565b61015560975481565b6101556101af366004610c54565b6001600160a01b031660009081526033602052604090205490565b6101d2610343565b005b6101d26103ae565b6065546040516001600160a01b039091168152602001610125565b61011861047f565b61014161020d366004610ce2565b61048e565b610141610220366004610ce2565b610509565b6101d2610517565b61015561023b366004610c75565b610570565b6101d261024e366004610c54565b61059b565b60606036805461026290610e1b565b80601f016020809104026020016040519081016040528092919081815260200182805461028e90610e1b565b80156102db5780601f106102b0576101008083540402835291602001916102db565b820191906000526020600020905b8154815290600101906020018083116102be57829003601f168201915b5050505050905090565b6000336102f3818585610672565b5060019392505050565b60003361030b858285610796565b610316858585610810565b506001949350505050565b6000336102f38185856103348383610570565b61033e9190610df7565b610672565b6065546001600160a01b031633146103a25760405162461bcd60e51b815260206004820181905260248201527f4f776e61626c653a2063616c6c6572206973206e6f7420746865206f776e657260448201526064015b60405180910390fd5b6103ac60006109de565b565b60006103ba6001610a30565b905080156103d2576000805461ff0019166101001790555b61042e6040518060400160405280601781526020017f5570677261646545524332305472616e73706172656e740000000000000000008152506040518060400160405280600581526020016415514c8c1560da1b815250610abd565b610436610af2565b801561047c576000805461ff0019169055604051600181527f7f26b83ff96e1f2b6a682f133852f6798a09c465da95921460cefb38474024989060200160405180910390a15b50565b60606037805461026290610e1b565b6000338161049c8286610570565b9050838110156104fc5760405162461bcd60e51b815260206004820152602560248201527f45524332303a2064656372656173656420616c6c6f77616e63652062656c6f77604482015264207a65726f60d81b6064820152608401610399565b6103168286868403610672565b6000336102f3818585610810565b6002609754106105695760405162461bcd60e51b815260206004820152601d60248201527f416c726561647920757067726164656420746f2076657273696f6e20320000006044820152606401610399565b6002609755565b6001600160a01b03918216600090815260346020908152604080832093909416825291909152205490565b6065546001600160a01b031633146105f55760405162461bcd60e51b815260206004820181905260248201527f4f776e61626c653a2063616c6c6572206973206e6f7420746865206f776e65726044820152606401610399565b6001600160a01b03811661065a5760405162461bcd60e51b815260206004820152602660248201527f4f776e61626c653a206e6577206f776e657220697320746865207a65726f206160448201526564647265737360d01b6064820152608401610399565b61047c816109de565b6001600160a01b03163b151590565b6001600160a01b0383166106d45760405162461bcd60e51b8152602060048201526024808201527f45524332303a20617070726f76652066726f6d20746865207a65726f206164646044820152637265737360e01b6064820152608401610399565b6001600160a01b0382166107355760405162461bcd60e51b815260206004820152602260248201527f45524332303a20617070726f766520746f20746865207a65726f206164647265604482015261737360f01b6064820152608401610399565b6001600160a01b0383811660008181526034602090815260408083209487168084529482529182902085905590518481527f8c5be1e5ebec7d5bd14f71427d1e84f3dd0314c0f7b2291e5b200ac8c7c3b925910160405180910390a3505050565b60006107a28484610570565b9050600019811461080a57818110156107fd5760405162461bcd60e51b815260206004820152601d60248201527f45524332303a20696e73756666696369656e7420616c6c6f77616e63650000006044820152606401610399565b61080a8484848403610672565b50505050565b6001600160a01b0383166108745760405162461bcd60e51b815260206004820152602560248201527f45524332303a207472616e736665722066726f6d20746865207a65726f206164604482015264647265737360d81b6064820152608401610399565b6001600160a01b0382166108d65760405162461bcd60e51b815260206004820152602360248201527f45524332303a207472616e7366657220746f20746865207a65726f206164647260448201526265737360e81b6064820152608401610399565b6001600160a01b0383166000908152603360205260409020548181101561094e5760405162461bcd60e51b815260206004820152602660248201527f45524332303a207472616e7366657220616d6f756e7420657863656564732062604482015265616c616e636560d01b6064820152608401610399565b6001600160a01b03808516600090815260336020526040808220858503905591851681529081208054849290610985908490610df7565b92505081905550826001600160a01b0316846001600160a01b03167fddf252ad1be2c89b69c2b068fc378daa952ba7f163c4a11628f55a4df523b3ef846040516109d191815260200190565b60405180910390a361080a565b606580546001600160a01b038381166001600160a01b0319831681179093556040519116919082907f8be0079c531659141344cd1fd0a4f28419497f9722a3daafe3b4186f6b6457e090600090a35050565b60008054610100900460ff1615610a77578160ff166001148015610a535750303b155b610a6f5760405162461bcd60e51b815260040161039990610d5e565b506000919050565b60005460ff808416911610610a9e5760405162461bcd60e51b815260040161039990610d5e565b506000805460ff191660ff92909216919091179055600190565b919050565b600054610100900460ff16610ae45760405162461bcd60e51b815260040161039990610dac565b610aee8282610b26565b5050565b600054610100900460ff16610b195760405162461bcd60e51b815260040161039990610dac565b6103ac610b74565b505050565b600054610100900460ff16610b4d5760405162461bcd60e51b815260040161039990610dac565b8151610b60906036906020850190610ba4565b508051610b21906037906020840190610ba4565b600054610100900460ff16610b9b5760405162461bcd60e51b815260040161039990610dac565b6103ac336109de565b828054610bb090610e1b565b90600052602060002090601f016020900481019282610bd25760008555610c18565b82601f10610beb57805160ff1916838001178555610c18565b82800160010185558215610c18579182015b82811115610c18578251825591602001919060010190610bfd565b50610c24929150610c28565b5090565b5b80821115610c245760008155600101610c29565b80356001600160a01b0381168114610ab857600080fd5b600060208284031215610c65578081fd5b610c6e82610c3d565b9392505050565b60008060408385031215610c87578081fd5b610c9083610c3d565b9150610c9e60208401610c3d565b90509250929050565b600080600060608486031215610cbb578081fd5b610cc484610c3d565b9250610cd260208501610c3d565b9150604084013590509250925092565b60008060408385031215610cf4578182fd5b610cfd83610c3d565b946020939093013593505050565b6000602080835283518082850152825b81811015610d3757858101830151858201604001528201610d1b565b81811115610d485783604083870101525b50601f01601f1916929092016040019392505050565b6020808252602e908201527f496e697469616c697a61626c653a20636f6e747261637420697320616c72656160408201526d191e481a5b9a5d1a585b1a5e995960921b606082015260800190565b6020808252602b908201527f496e697469616c697a61626c653a20636f6e7472616374206973206e6f74206960408201526a6e697469616c697a696e6760a81b606082015260800190565b60008219821115610e1657634e487b7160e01b81526011600452602481fd5b500190565b600181811c90821680610e2f57607f821691505b60208210811415610e5057634e487b7160e01b600052602260045260246000fd5b5091905056fea264697066735822122057b5921b29038152a84d2e0a51f185dd633f3420156c2838bc90df2a5a36b63164736f6c63430008040033496e697469616c697a61626c653a20636f6e747261637420697320616c726561",
  "linkReferences": {},
  "deployedLinkReferences": {}
}