{
  "_format": "hh-sol-artifact-1",
  "contractName": "UpgradeERC20Transparent",
  "sourceName": "contracts/upgradeable/UpgradeERC20Transparent/UpgradeERC20Transparent.sol",
  "abi": [
    {
      "inputs": [],
      "stateMutability": "nonpayable",
      "type": "constructor"
    },
    {
      "anonymous": false,
      "inputs": [
        {
          "indexed": true,
          "internalType": "address",
          "name": "owner",
          "type": "address"
        },
        {
          "indexed": true,
          "internalType": "address",
          "name": "spender",
          "type": "address"
        },
        {
          "indexed": false,
          "internalType": "uint256",
          "name": "value",
          "type": "uint256"
        }
      ],
      "name": "Approval",
      "type": "event"
    },
    {
      "anonymous": false,
      "inputs": [
        {
          "indexed": false,
          "internalType": "uint8",
          "name": "version",
          "type": "uint8"
        }
      ],
      "name": "Initialized",
      "type": "event"
    },
    {
      "anonymous": false,
      "inputs": [
        {
          "indexed": true,
          "internalType": "address",
          "name": "previousOwner",
          "type": "address"
        },
        {
          "indexed": true,
          "internalType": "address",
          "name": "newOwner",
          "type": "address"
        }
      ],
      "name": "OwnershipTransferred",
      "type": "event"
    },
    {
      "anonymous": false,
      "inputs": [
        {
          "indexed": true,
          "internalType": "address",
          "name": "from",
          "type": "address"
        },
        {
          "indexed": true,
          "internalType": "address",
          "name": "to",
          "type": "address"
        },
        {
          "indexed": false,
          "internalType": "uint256",
          "name": "value",
          "type": "uint256"
        }
      ],
      "name": "Transfer",
      "type": "event"
    },
    {
      "inputs": [
        {
          "internalType": "address",
          "name": "owner",
          "type": "address"
        },
        {
          "internalType": "address",
          "name": "spender",
          "type": "address"
        }
      ],
      "name": "allowance",
      "outputs": [
        {
          "internalType": "uint256",
          "name": "",
          "type": "uint256"
        }
      ],
      "stateMutability": "view",
      "type": "function"
    },
    {
      "inputs": [
        {
          "internalType": "address",
          "name": "spender",
          "type": "address"
        },
        {
          "internalType": "uint256",
          "name": "amount",
          "type": "uint256"
        }
      ],
      "name": "approve",
      "outputs": [
        {
          "internalType": "bool",
          "name": "",
          "type": "bool"
        }
      ],
      "stateMutability": "nonpayable",
      "type": "function"
    },
    {
      "inputs": [
        {
          "internalType": "address",
          "name": "account",
          "type": "address"
        }
      ],
      "name": "balanceOf",
      "outputs": [
        {
          "internalType": "uint256",
          "name": "",
          "type": "uint256"
        }
      ],
      "stateMutability": "view",
      "type": "function"
    },
    {
      "inputs": [],
      "name": "decimals",
      "outputs": [
        {
          "internalType": "uint8",
          "name": "",
          "type": "uint8"
        }
      ],
      "stateMutability": "view",
      "type": "function"
    },
    {
      "inputs": [
        {
          "internalType": "address",
          "name": "spender",
          "type": "address"
        },
        {
          "internalType": "uint256",
          "name": "subtractedValue",
          "type": "uint256"
        }
      ],
      "name": "decreaseAllowance",
      "outputs": [
        {
          "internalType": "bool",
          "name": "",
          "type": "bool"
        }
      ],
      "stateMutability": "nonpayable",
      "type": "function"
    },
    {
      "inputs": [
        {
          "internalType": "address",
          "name": "spender",
          "type": "address"
        },
        {
          "internalType": "uint256",
          "name": "addedValue",
          "type": "uint256"
        }
      ],
      "name": "increaseAllowance",
      "outputs": [
        {
          "internalType": "bool",
          "name": "",
          "type": "bool"
        }
      ],
      "stateMutability": "nonpayable",
      "type": "function"
    },
    {
      "inputs": [],
      "name": "initialize",
      "outputs": [],
      "stateMutability": "nonpayable",
      "type": "function"
    },
    {
      "inputs": [],
      "name": "name",
      "outputs": [
        {
          "internalType": "string",
          "name": "",
          "type": "string"
        }
      ],
      "stateMutability": "view",
      "type": "function"
    },
    {
      "inputs": [],
      "name": "owner",
      "outputs": [
        {
          "internalType": "address",
          "name": "",
          "type": "address"
        }
      ],
      "stateMutability": "view",
      "type": "function"
    },
    {
      "inputs": [],
      "name": "renounceOwnership",
      "outputs": [],
      "stateMutability": "nonpayable",
      "type": "function"
    },
    {
      "inputs": [],
      "name": "symbol",
      "outputs": [
        {
          "internalType": "string",
          "name": "",
          "type": "string"
        }
      ],
      "stateMutability": "view",
      "type": "function"
    },
    {
      "inputs": [],
      "name": "totalSupply",
      "outputs": [
        {
          "internalType": "uint256",
          "name": "",
          "type": "uint256"
        }
      ],
      "stateMutability": "view",
      "type": "function"
    },
    {
      "inputs": [
        {
          "internalType": "address",
          "name": "to",
          "type": "address"
        },
        {
          "internalType": "uint256",
          "name": "amount",
          "type": "uint256"
        }
      ],
      "name": "transfer",
      "outputs": [
        {
          "internalType": "bool",
          "name": "",
          "type": "bool"
        }
      ],
      "stateMutability": "nonpayable",
      "type": "function"
    },
    {
      "inputs": [
        {
          "internalType": "address",
          "name": "from",
          "type": "address"
        },
        {
          "internalType": "address",
          "name": "to",
          "type": "address"
        },
        {
          "internalType": "uint256",
          "name": "amount",
          "type": "uint256"
        }
      ],
      "name": "transferFrom",
      "outputs": [
        {
          "internalType": "bool",
          "name": "",
          "type": "bool"
        }
      ],
      "stateMutability": "nonpayable",
      "type": "function"
    },
    {
      "inputs": [
        {
          "internalType": "address",
          "name": "newOwner",
          "type": "address"
        }
      ],
      "name": "transferOwnership",
      "outputs": [],
      "stateMutability": "nonpayable",
      "type": "function"
    }
  ],
  "bytecode": "0x608060405234801561001057600080fd5b5061001961001e565b610142565b61002860ff61002b565b50565b60008054610100900460ff16156100bd578160ff16600114801561005f575061005d3061013360201b6105e31760201c565b155b6100b55760405162461bcd60e51b815260206004820152602e6024820152600080516020610f5d83398151915260448201526d191e481a5b9a5d1a585b1a5e995960921b60648201526084015b60405180910390fd5b506000919050565b60005460ff8084169116106101195760405162461bcd60e51b815260206004820152602e6024820152600080516020610f5d83398151915260448201526d191e481a5b9a5d1a585b1a5e995960921b60648201526084016100ac565b506000805460ff191660ff92909216919091179055600190565b6001600160a01b03163b151590565b610e0c806101516000396000f3fe608060405234801561001057600080fd5b50600436106100f55760003560e01c8063715018a611610097578063a457c2d711610066578063a457c2d7146101e0578063a9059cbb146101f3578063dd62ed3e14610206578063f2fde38b1461021957600080fd5b8063715018a6146101ab5780638129fc1c146101b55780638da5cb5b146101bd57806395d89b41146101d857600080fd5b806323b872dd116100d357806323b872dd1461014d578063313ce56714610160578063395093511461016f57806370a082311461018257600080fd5b806306fdde03146100fa578063095ea7b31461011857806318160ddd1461013b575b600080fd5b61010261022c565b60405161010f9190610c8b565b60405180910390f35b61012b610126366004610c62565b6102be565b604051901515815260200161010f565b6035545b60405190815260200161010f565b61012b61015b366004610c27565b6102d6565b6040516012815260200161010f565b61012b61017d366004610c62565b6102fa565b61013f610190366004610bd4565b6001600160a01b031660009081526033602052604090205490565b6101b361031c565b005b6101b3610387565b6065546040516001600160a01b03909116815260200161010f565b610102610458565b61012b6101ee366004610c62565b610467565b61012b610201366004610c62565b6104e2565b61013f610214366004610bf5565b6104f0565b6101b3610227366004610bd4565b61051b565b60606036805461023b90610d9b565b80601f016020809104026020016040519081016040528092919081815260200182805461026790610d9b565b80156102b45780601f10610289576101008083540402835291602001916102b4565b820191906000526020600020905b81548152906001019060200180831161029757829003601f168201915b5050505050905090565b6000336102cc8185856105f2565b5060019392505050565b6000336102e4858285610716565b6102ef858585610790565b506001949350505050565b6000336102cc81858561030d83836104f0565b6103179190610d77565b6105f2565b6065546001600160a01b0316331461037b5760405162461bcd60e51b815260206004820181905260248201527f4f776e61626c653a2063616c6c6572206973206e6f7420746865206f776e657260448201526064015b60405180910390fd5b610385600061095e565b565b600061039360016109b0565b905080156103ab576000805461ff0019166101001790555b6104076040518060400160405280601781526020017f5570677261646545524332305472616e73706172656e740000000000000000008152506040518060400160405280600581526020016415514c8c1560da1b815250610a3d565b61040f610a72565b8015610455576000805461ff0019169055604051600181527f7f26b83ff96e1f2b6a682f133852f6798a09c465da95921460cefb38474024989060200160405180910390a15b50565b60606037805461023b90610d9b565b6000338161047582866104f0565b9050838110156104d55760405162461bcd60e51b815260206004820152602560248201527f45524332303a2064656372656173656420616c6c6f77616e63652062656c6f77604482015264207a65726f60d81b6064820152608401610372565b6102ef82868684036105f2565b6000336102cc818585610790565b6001600160a01b03918216600090815260346020908152604080832093909416825291909152205490565b6065546001600160a01b031633146105755760405162461bcd60e51b815260206004820181905260248201527f4f776e61626c653a2063616c6c6572206973206e6f7420746865206f776e65726044820152606401610372565b6001600160a01b0381166105da5760405162461bcd60e51b815260206004820152602660248201527f4f776e61626c653a206e6577206f776e657220697320746865207a65726f206160448201526564647265737360d01b6064820152608401610372565b6104558161095e565b6001600160a01b03163b151590565b6001600160a01b0383166106545760405162461bcd60e51b8152602060048201526024808201527f45524332303a20617070726f76652066726f6d20746865207a65726f206164646044820152637265737360e01b6064820152608401610372565b6001600160a01b0382166106b55760405162461bcd60e51b815260206004820152602260248201527f45524332303a20617070726f766520746f20746865207a65726f206164647265604482015261737360f01b6064820152608401610372565b6001600160a01b0383811660008181526034602090815260408083209487168084529482529182902085905590518481527f8c5be1e5ebec7d5bd14f71427d1e84f3dd0314c0f7b2291e5b200ac8c7c3b925910160405180910390a3505050565b600061072284846104f0565b9050600019811461078a578181101561077d5760405162461bcd60e51b815260206004820152601d60248201527f45524332303a20696e73756666696369656e7420616c6c6f77616e63650000006044820152606401610372565b61078a84848484036105f2565b50505050565b6001600160a01b0383166107f45760405162461bcd60e51b815260206004820152602560248201527f45524332303a207472616e736665722066726f6d20746865207a65726f206164604482015264647265737360d81b6064820152608401610372565b6001600160a01b0382166108565760405162461bcd60e51b815260206004820152602360248201527f45524332303a207472616e7366657220746f20746865207a65726f206164647260448201526265737360e81b6064820152608401610372565b6001600160a01b038316600090815260336020526040902054818110156108ce5760405162461bcd60e51b815260206004820152602660248201527f45524332303a207472616e7366657220616d6f756e7420657863656564732062604482015265616c616e636560d01b6064820152608401610372565b6001600160a01b03808516600090815260336020526040808220858503905591851681529081208054849290610905908490610d77565b92505081905550826001600160a01b0316846001600160a01b03167fddf252ad1be2c89b69c2b068fc378daa952ba7f163c4a11628f55a4df523b3ef8460405161095191815260200190565b60405180910390a361078a565b606580546001600160a01b038381166001600160a01b0319831681179093556040519116919082907f8be0079c531659141344cd1fd0a4f28419497f9722a3daafe3b4186f6b6457e090600090a35050565b60008054610100900460ff16156109f7578160ff1660011480156109d35750303b155b6109ef5760405162461bcd60e51b815260040161037290610cde565b506000919050565b60005460ff808416911610610a1e5760405162461bcd60e51b815260040161037290610cde565b506000805460ff191660ff92909216919091179055600190565b919050565b600054610100900460ff16610a645760405162461bcd60e51b815260040161037290610d2c565b610a6e8282610aa6565b5050565b600054610100900460ff16610a995760405162461bcd60e51b815260040161037290610d2c565b610385610af4565b505050565b600054610100900460ff16610acd5760405162461bcd60e51b815260040161037290610d2c565b8151610ae0906036906020850190610b24565b508051610aa1906037906020840190610b24565b600054610100900460ff16610b1b5760405162461bcd60e51b815260040161037290610d2c565b6103853361095e565b828054610b3090610d9b565b90600052602060002090601f016020900481019282610b525760008555610b98565b82601f10610b6b57805160ff1916838001178555610b98565b82800160010185558215610b98579182015b82811115610b98578251825591602001919060010190610b7d565b50610ba4929150610ba8565b5090565b5b80821115610ba45760008155600101610ba9565b80356001600160a01b0381168114610a3857600080fd5b600060208284031215610be5578081fd5b610bee82610bbd565b9392505050565b60008060408385031215610c07578081fd5b610c1083610bbd565b9150610c1e60208401610bbd565b90509250929050565b600080600060608486031215610c3b578081fd5b610c4484610bbd565b9250610c5260208501610bbd565b9150604084013590509250925092565b60008060408385031215610c74578182fd5b610c7d83610bbd565b946020939093013593505050565b6000602080835283518082850152825b81811015610cb757858101830151858201604001528201610c9b565b81811115610cc85783604083870101525b50601f01601f1916929092016040019392505050565b6020808252602e908201527f496e697469616c697a61626c653a20636f6e747261637420697320616c72656160408201526d191e481a5b9a5d1a585b1a5e995960921b606082015260800190565b6020808252602b908201527f496e697469616c697a61626c653a20636f6e7472616374206973206e6f74206960408201526a6e697469616c697a696e6760a81b606082015260800190565b60008219821115610d9657634e487b7160e01b81526011600452602481fd5b500190565b600181811c90821680610daf57607f821691505b60208210811415610dd057634e487b7160e01b600052602260045260246000fd5b5091905056fea26469706673582212200b515db5e5d8bb0f86ee5b2e42409b1a735266cbdfa4ad996df951f7e056405164736f6c63430008040033496e697469616c697a61626c653a20636f6e747261637420697320616c726561",
  "linkReferences": {},
  "deployedLinkReferences": {}
}