{
  "_format": "hh-sol-artifact-1",
  "contractName": "UpgradeERC20UUPSV5",
  "sourceName": "contracts/upgradeable/UpgradeERC20UUPS/UpgradeERC20UUPSV5.sol",
  "abi": [
    {
      "anonymous": false,
      "inputs": [
        {
          "indexed": false,
          "internalType": "address",
          "name": "previousAdmin",
          "type": "address"
        },
        {
          "indexed": false,
          "internalType": "address",
          "name": "newAdmin",
          "type": "address"
        }
      ],
      "name": "AdminChanged",
      "type": "event"
    },
    {
      "anonymous": false,
      "inputs": [
        {
          "indexed": true,
          "internalType": "address",
          "name": "owner",
          "type": "address"
        },
        {
          "indexed": true,
          "internalType": "address",
          "name": "spender",
          "type": "address"
        },
        {
          "indexed": false,
          "internalType": "uint256",
          "name": "value",
          "type": "uint256"
        }
      ],
      "name": "Approval",
      "type": "event"
    },
    {
      "anonymous": false,
      "inputs": [
        {
          "indexed": true,
          "internalType": "address",
          "name": "beacon",
          "type": "address"
        }
      ],
      "name": "BeaconUpgraded",
      "type": "event"
    },
    {
      "anonymous": false,
      "inputs": [
        {
          "indexed": false,
          "internalType": "uint8",
          "name": "version",
          "type": "uint8"
        }
      ],
      "name": "Initialized",
      "type": "event"
    },
    {
      "anonymous": false,
      "inputs": [
        {
          "indexed": true,
          "internalType": "address",
          "name": "previousOwner",
          "type": "address"
        },
        {
          "indexed": true,
          "internalType": "address",
          "name": "newOwner",
          "type": "address"
        }
      ],
      "name": "OwnershipTransferred",
      "type": "event"
    },
    {
      "anonymous": false,
      "inputs": [
        {
          "indexed": false,
          "internalType": "address",
          "name": "account",
          "type": "address"
        }
      ],
      "name": "Paused",
      "type": "event"
    },
    {
      "anonymous": false,
      "inputs": [
        {
          "indexed": true,
          "internalType": "address",
          "name": "from",
          "type": "address"
        },
        {
          "indexed": true,
          "internalType": "address",
          "name": "to",
          "type": "address"
        },
        {
          "indexed": false,
          "internalType": "uint256",
          "name": "value",
          "type": "uint256"
        }
      ],
      "name": "Transfer",
      "type": "event"
    },
    {
      "anonymous": false,
      "inputs": [
        {
          "indexed": false,
          "internalType": "address",
          "name": "account",
          "type": "address"
        }
      ],
      "name": "Unpaused",
      "type": "event"
    },
    {
      "anonymous": false,
      "inputs": [
        {
          "indexed": true,
          "internalType": "address",
          "name": "implementation",
          "type": "address"
        }
      ],
      "name": "Upgraded",
      "type": "event"
    },
    {
      "inputs": [
        {
          "internalType": "address",
          "name": "owner",
          "type": "address"
        },
        {
          "internalType": "address",
          "name": "spender",
          "type": "address"
        }
      ],
      "name": "allowance",
      "outputs": [
        {
          "internalType": "uint256",
          "name": "",
          "type": "uint256"
        }
      ],
      "stateMutability": "view",
      "type": "function"
    },
    {
      "inputs": [
        {
          "internalType": "address",
          "name": "spender",
          "type": "address"
        },
        {
          "internalType": "uint256",
          "name": "amount",
          "type": "uint256"
        }
      ],
      "name": "approve",
      "outputs": [
        {
          "internalType": "bool",
          "name": "",
          "type": "bool"
        }
      ],
      "stateMutability": "nonpayable",
      "type": "function"
    },
    {
      "inputs": [
        {
          "internalType": "address",
          "name": "account",
          "type": "address"
        }
      ],
      "name": "balanceOf",
      "outputs": [
        {
          "internalType": "uint256",
          "name": "",
          "type": "uint256"
        }
      ],
      "stateMutability": "view",
      "type": "function"
    },
    {
      "inputs": [],
      "name": "decimals",
      "outputs": [
        {
          "internalType": "uint8",
          "name": "",
          "type": "uint8"
        }
      ],
      "stateMutability": "view",
      "type": "function"
    },
    {
      "inputs": [
        {
          "internalType": "address",
          "name": "spender",
          "type": "address"
        },
        {
          "internalType": "uint256",
          "name": "subtractedValue",
          "type": "uint256"
        }
      ],
      "name": "decreaseAllowance",
      "outputs": [
        {
          "internalType": "bool",
          "name": "",
          "type": "bool"
        }
      ],
      "stateMutability": "nonpayable",
      "type": "function"
    },
    {
      "inputs": [
        {
          "internalType": "address",
          "name": "spender",
          "type": "address"
        },
        {
          "internalType": "uint256",
          "name": "addedValue",
          "type": "uint256"
        }
      ],
      "name": "increaseAllowance",
      "outputs": [
        {
          "internalType": "bool",
          "name": "",
          "type": "bool"
        }
      ],
      "stateMutability": "nonpayable",
      "type": "function"
    },
    {
      "inputs": [],
      "name": "initialize",
      "outputs": [],
      "stateMutability": "nonpayable",
      "type": "function"
    },
    {
      "inputs": [],
      "name": "name",
      "outputs": [
        {
          "internalType": "string",
          "name": "",
          "type": "string"
        }
      ],
      "stateMutability": "view",
      "type": "function"
    },
    {
      "inputs": [],
      "name": "owner",
      "outputs": [
        {
          "internalType": "address",
          "name": "",
          "type": "address"
        }
      ],
      "stateMutability": "view",
      "type": "function"
    },
    {
      "inputs": [],
      "name": "pause",
      "outputs": [],
      "stateMutability": "nonpayable",
      "type": "function"
    },
    {
      "inputs": [],
      "name": "paused",
      "outputs": [
        {
          "internalType": "bool",
          "name": "",
          "type": "bool"
        }
      ],
      "stateMutability": "view",
      "type": "function"
    },
    {
      "inputs": [],
      "name": "proxiableUUID",
      "outputs": [
        {
          "internalType": "bytes32",
          "name": "",
          "type": "bytes32"
        }
      ],
      "stateMutability": "view",
      "type": "function"
    },
    {
      "inputs": [],
      "name": "renounceOwnership",
      "outputs": [],
      "stateMutability": "nonpayable",
      "type": "function"
    },
    {
      "inputs": [],
      "name": "symbol",
      "outputs": [
        {
          "internalType": "string",
          "name": "",
          "type": "string"
        }
      ],
      "stateMutability": "view",
      "type": "function"
    },
    {
      "inputs": [],
      "name": "totalSupply",
      "outputs": [
        {
          "internalType": "uint256",
          "name": "",
          "type": "uint256"
        }
      ],
      "stateMutability": "view",
      "type": "function"
    },
    {
      "inputs": [
        {
          "internalType": "address",
          "name": "to",
          "type": "address"
        },
        {
          "internalType": "uint256",
          "name": "amount",
          "type": "uint256"
        }
      ],
      "name": "transfer",
      "outputs": [
        {
          "internalType": "bool",
          "name": "",
          "type": "bool"
        }
      ],
      "stateMutability": "nonpayable",
      "type": "function"
    },
    {
      "inputs": [
        {
          "internalType": "address",
          "name": "from",
          "type": "address"
        },
        {
          "internalType": "address",
          "name": "to",
          "type": "address"
        },
        {
          "internalType": "uint256",
          "name": "amount",
          "type": "uint256"
        }
      ],
      "name": "transferFrom",
      "outputs": [
        {
          "internalType": "bool",
          "name": "",
          "type": "bool"
        }
      ],
      "stateMutability": "nonpayable",
      "type": "function"
    },
    {
      "inputs": [
        {
          "internalType": "address",
          "name": "newOwner",
          "type": "address"
        }
      ],
      "name": "transferOwnership",
      "outputs": [],
      "stateMutability": "nonpayable",
      "type": "function"
    },
    {
      "inputs": [],
      "name": "unpause",
      "outputs": [],
      "stateMutability": "nonpayable",
      "type": "function"
    },
    {
      "inputs": [
        {
          "internalType": "address",
          "name": "newImplementation",
          "type": "address"
        }
      ],
      "name": "upgradeTo",
      "outputs": [],
      "stateMutability": "nonpayable",
      "type": "function"
    },
    {
      "inputs": [
        {
          "internalType": "address",
          "name": "newImplementation",
          "type": "address"
        },
        {
          "internalType": "bytes",
          "name": "data",
          "type": "bytes"
        }
      ],
      "name": "upgradeToAndCall",
      "outputs": [],
      "stateMutability": "payable",
      "type": "function"
    },
    {
      "inputs": [],
      "name": "upgradeToV2",
      "outputs": [],
      "stateMutability": "nonpayable",
      "type": "function"
    },
    {
      "inputs": [],
      "name": "upgradeToV3",
      "outputs": [],
      "stateMutability": "nonpayable",
      "type": "function"
    },
    {
      "inputs": [],
      "name": "upgradeToV4",
      "outputs": [],
      "stateMutability": "nonpayable",
      "type": "function"
    },
    {
      "inputs": [],
      "name": "upgradeToV5",
      "outputs": [],
      "stateMutability": "nonpayable",
      "type": "function"
    },
    {
      "inputs": [],
      "name": "version",
      "outputs": [
        {
          "internalType": "uint256",
          "name": "",
          "type": "uint256"
        }
      ],
      "stateMutability": "view",
      "type": "function"
    }
  ],
  "bytecode": "0x60a06040523060601b6080523480156200001857600080fd5b50620000236200002f565b600161012d556200015f565b6200003b60ff6200003e565b50565b60008054610100900460ff1615620000d7578160ff16600114801562000077575062000075306200015060201b62000c681760201c565b155b620000cf5760405162461bcd60e51b815260206004820152602e602482015260008051602062001e0183398151915260448201526d191e481a5b9a5d1a585b1a5e995960921b60648201526084015b60405180910390fd5b506000919050565b60005460ff808416911610620001365760405162461bcd60e51b815260206004820152602e602482015260008051602062001e0183398151915260448201526d191e481a5b9a5d1a585b1a5e995960921b6064820152608401620000c6565b506000805460ff191660ff92909216919091179055600190565b6001600160a01b03163b151590565b60805160601c611c676200019a600039600081816105c3015281816106030152818161076c015281816107ac015261083f0152611c676000f3fe6080604052600436106101815760003560e01c80635c975abb116100d157806395d89b411161008a578063b211665711610064578063b211665714610406578063cc01053e1461041b578063dd62ed3e14610430578063f2fde38b1461045057600080fd5b806395d89b41146103b1578063a457c2d7146103c6578063a9059cbb146103e657600080fd5b80635c975abb146102fc57806370a0823114610314578063715018a61461034a5780638129fc1c1461035f5780638456cb59146103745780638da5cb5b1461038957600080fd5b80633659cfe61161013e5780633f4ba83a116101185780633f4ba83a146102a85780634f1ef286146102bd57806352d1902d146102d057806354fd4d50146102e557600080fd5b80633659cfe61461025357806339509351146102735780633b1332601461029357600080fd5b806305711ffc1461018657806306fdde031461019d578063095ea7b3146101c857806318160ddd146101f857806323b872dd14610217578063313ce56714610237575b600080fd5b34801561019257600080fd5b5061019b610470565b005b3480156101a957600080fd5b506101b26104e8565b6040516101bf91906119b0565b60405180910390f35b3480156101d457600080fd5b506101e86101e3366004611953565b61057a565b60405190151581526020016101bf565b34801561020457600080fd5b506035545b6040519081526020016101bf565b34801561022357600080fd5b506101e861023236600461185b565b610592565b34801561024357600080fd5b50604051601281526020016101bf565b34801561025f57600080fd5b5061019b61026e36600461180f565b6105b8565b34801561027f57600080fd5b506101e861028e366004611953565b610698565b34801561029f57600080fd5b5061019b6106ba565b3480156102b457600080fd5b5061019b61072d565b61019b6102cb366004611896565b610761565b3480156102dc57600080fd5b50610209610832565b3480156102f157600080fd5b5061020961012d5481565b34801561030857600080fd5b5060655460ff166101e8565b34801561032057600080fd5b5061020961032f36600461180f565b6001600160a01b031660009081526033602052604090205490565b34801561035657600080fd5b5061019b6108e5565b34801561036b57600080fd5b5061019b610919565b34801561038057600080fd5b5061019b6109ee565b34801561039557600080fd5b506097546040516001600160a01b0390911681526020016101bf565b3480156103bd57600080fd5b506101b2610a20565b3480156103d257600080fd5b506101e86103e1366004611953565b610a2f565b3480156103f257600080fd5b506101e8610401366004611953565b610ab5565b34801561041257600080fd5b5061019b610ac3565b34801561042757600080fd5b5061019b610b36565b34801561043c57600080fd5b5061020961044b366004611829565b610ba5565b34801561045c57600080fd5b5061019b61046b36600461180f565b610bd0565b600561012d54106104e05760405162461bcd60e51b815260206004820152602f60248201527f557067726164654552433230555550533a20416c72656164792075706772616460448201526e656420746f2076657273696f6e203560881b60648201526084015b60405180910390fd5b600561012d55565b6060603680546104f790611b99565b80601f016020809104026020016040519081016040528092919081815260200182805461052390611b99565b80156105705780601f1061054557610100808354040283529160200191610570565b820191906000526020600020905b81548152906001019060200180831161055357829003601f168201915b5050505050905090565b600033610588818585610c77565b5060019392505050565b6000336105a0858285610d9b565b6105ab858585610e15565b60019150505b9392505050565b306001600160a01b037f00000000000000000000000000000000000000000000000000000000000000001614156106015760405162461bcd60e51b81526004016104d7906119e3565b7f00000000000000000000000000000000000000000000000000000000000000006001600160a01b031661064a600080516020611beb833981519152546001600160a01b031690565b6001600160a01b0316146106705760405162461bcd60e51b81526004016104d790611a2f565b61067981610fee565b6040805160008082526020820190925261069591839190611018565b50565b6000336105888185856106ab8383610ba5565b6106b59190611b49565b610c77565b600461012d54106107255760405162461bcd60e51b815260206004820152602f60248201527f557067726164654552433230555550533a20416c72656164792075706772616460448201526e1959081d1bc81d995c9cda5bdb880d608a1b60648201526084016104d7565b600461012d55565b6097546001600160a01b031633146107575760405162461bcd60e51b81526004016104d790611ac9565b61075f611197565b565b306001600160a01b037f00000000000000000000000000000000000000000000000000000000000000001614156107aa5760405162461bcd60e51b81526004016104d7906119e3565b7f00000000000000000000000000000000000000000000000000000000000000006001600160a01b03166107f3600080516020611beb833981519152546001600160a01b031690565b6001600160a01b0316146108195760405162461bcd60e51b81526004016104d790611a2f565b61082282610fee565b61082e82826001611018565b5050565b6000306001600160a01b037f000000000000000000000000000000000000000000000000000000000000000016146108d25760405162461bcd60e51b815260206004820152603860248201527f555550535570677261646561626c653a206d757374206e6f742062652063616c60448201527f6c6564207468726f7567682064656c656761746563616c6c000000000000000060648201526084016104d7565b50600080516020611beb83398151915290565b6097546001600160a01b0316331461090f5760405162461bcd60e51b81526004016104d790611ac9565b61075f600061122a565b6000610925600161127c565b9050801561093d576000805461ff0019166101001790555b61098e6040518060400160405280601281526020017155706772616465204552433230205555505360701b81525060405180604001604052806005815260200164554532305560d81b815250611309565b61099661133a565b61099e611369565b6109a6611398565b8015610695576000805461ff0019169055604051600181527f7f26b83ff96e1f2b6a682f133852f6798a09c465da95921460cefb38474024989060200160405180910390a150565b6097546001600160a01b03163314610a185760405162461bcd60e51b81526004016104d790611ac9565b61075f6113bf565b6060603780546104f790611b99565b60003381610a3d8286610ba5565b905083811015610a9d5760405162461bcd60e51b815260206004820152602560248201527f45524332303a2064656372656173656420616c6c6f77616e63652062656c6f77604482015264207a65726f60d81b60648201526084016104d7565b610aaa8286868403610c77565b506001949350505050565b600033610588818585610e15565b600361012d5410610b2e5760405162461bcd60e51b815260206004820152602f60248201527f557067726164654552433230555550533a20416c72656164792075706772616460448201526e656420746f2076657273696f6e203360881b60648201526084016104d7565b600361012d55565b600261012d5410610b9d5760405162461bcd60e51b815260206004820152602b60248201527f44654875625374616b696e673a20416c7265616479207570677261646564207460448201526a6f2076657273696f6e203360a81b60648201526084016104d7565b600261012d55565b6001600160a01b03918216600090815260346020908152604080832093909416825291909152205490565b6097546001600160a01b03163314610bfa5760405162461bcd60e51b81526004016104d790611ac9565b6001600160a01b038116610c5f5760405162461bcd60e51b815260206004820152602660248201527f4f776e61626c653a206e6577206f776e657220697320746865207a65726f206160448201526564647265737360d01b60648201526084016104d7565b6106958161122a565b6001600160a01b03163b151590565b6001600160a01b038316610cd95760405162461bcd60e51b8152602060048201526024808201527f45524332303a20617070726f76652066726f6d20746865207a65726f206164646044820152637265737360e01b60648201526084016104d7565b6001600160a01b038216610d3a5760405162461bcd60e51b815260206004820152602260248201527f45524332303a20617070726f766520746f20746865207a65726f206164647265604482015261737360f01b60648201526084016104d7565b6001600160a01b0383811660008181526034602090815260408083209487168084529482529182902085905590518481527f8c5be1e5ebec7d5bd14f71427d1e84f3dd0314c0f7b2291e5b200ac8c7c3b925910160405180910390a3505050565b6000610da78484610ba5565b90506000198114610e0f5781811015610e025760405162461bcd60e51b815260206004820152601d60248201527f45524332303a20696e73756666696369656e7420616c6c6f77616e636500000060448201526064016104d7565b610e0f8484848403610c77565b50505050565b6001600160a01b038316610e795760405162461bcd60e51b815260206004820152602560248201527f45524332303a207472616e736665722066726f6d20746865207a65726f206164604482015264647265737360d81b60648201526084016104d7565b6001600160a01b038216610edb5760405162461bcd60e51b815260206004820152602360248201527f45524332303a207472616e7366657220746f20746865207a65726f206164647260448201526265737360e81b60648201526084016104d7565b610ee683838361143a565b6001600160a01b03831660009081526033602052604090205481811015610f5e5760405162461bcd60e51b815260206004820152602660248201527f45524332303a207472616e7366657220616d6f756e7420657863656564732062604482015265616c616e636560d01b60648201526084016104d7565b6001600160a01b03808516600090815260336020526040808220858503905591851681529081208054849290610f95908490611b49565b92505081905550826001600160a01b0316846001600160a01b03167fddf252ad1be2c89b69c2b068fc378daa952ba7f163c4a11628f55a4df523b3ef84604051610fe191815260200190565b60405180910390a3610e0f565b6097546001600160a01b031633146106955760405162461bcd60e51b81526004016104d790611ac9565b7f4910fdfa16fed3260ed0e7147f7cc6da11a60208b5b9406d12a635614ffd91435460ff16156110505761104b83611480565b505050565b826001600160a01b03166352d1902d6040518163ffffffff1660e01b815260040160206040518083038186803b15801561108957600080fd5b505afa9250505080156110b9575060408051601f3d908101601f191682019092526110b69181019061197c565b60015b61111c5760405162461bcd60e51b815260206004820152602e60248201527f45524331393637557067726164653a206e657720696d706c656d656e7461746960448201526d6f6e206973206e6f74205555505360901b60648201526084016104d7565b600080516020611beb833981519152811461118b5760405162461bcd60e51b815260206004820152602960248201527f45524331393637557067726164653a20756e737570706f727465642070726f786044820152681a58589b195555525160ba1b60648201526084016104d7565b5061104b83838361151c565b60655460ff166111e05760405162461bcd60e51b815260206004820152601460248201527314185d5cd8589b194e881b9bdd081c185d5cd95960621b60448201526064016104d7565b6065805460ff191690557f5db9ee0a495bf2e6ff9c91a7834c1ba4fdd244a5e8aa4e537bd38aeae4b073aa335b6040516001600160a01b03909116815260200160405180910390a1565b609780546001600160a01b038381166001600160a01b0319831681179093556040519116919082907f8be0079c531659141344cd1fd0a4f28419497f9722a3daafe3b4186f6b6457e090600090a35050565b60008054610100900460ff16156112c3578160ff16600114801561129f5750303b155b6112bb5760405162461bcd60e51b81526004016104d790611a7b565b506000919050565b60005460ff8084169116106112ea5760405162461bcd60e51b81526004016104d790611a7b565b506000805460ff191660ff92909216919091179055600190565b919050565b600054610100900460ff166113305760405162461bcd60e51b81526004016104d790611afe565b61082e8282611541565b600054610100900460ff166113615760405162461bcd60e51b81526004016104d790611afe565b61075f61158f565b600054610100900460ff166113905760405162461bcd60e51b81526004016104d790611afe565b61075f6115c2565b600054610100900460ff1661075f5760405162461bcd60e51b81526004016104d790611afe565b60655460ff16156114055760405162461bcd60e51b815260206004820152601060248201526f14185d5cd8589b194e881c185d5cd95960821b60448201526064016104d7565b6065805460ff191660011790557f62e78cea01bee320cd4e420270b5ea74000d11b0c9f74754ebdbfc544b05a25861120d3390565b60655460ff161561104b5760405162461bcd60e51b815260206004820152601060248201526f14185d5cd8589b194e881c185d5cd95960821b60448201526064016104d7565b6001600160a01b0381163b6114ed5760405162461bcd60e51b815260206004820152602d60248201527f455243313936373a206e657720696d706c656d656e746174696f6e206973206e60448201526c1bdd08184818dbdb9d1c9858dd609a1b60648201526084016104d7565b600080516020611beb83398151915280546001600160a01b0319166001600160a01b0392909216919091179055565b611525836115f2565b6000825111806115325750805b1561104b57610e0f8383611632565b600054610100900460ff166115685760405162461bcd60e51b81526004016104d790611afe565b815161157b90603690602085019061175f565b50805161104b90603790602084019061175f565b600054610100900460ff166115b65760405162461bcd60e51b81526004016104d790611afe565b6065805460ff19169055565b600054610100900460ff166115e95760405162461bcd60e51b81526004016104d790611afe565b61075f3361122a565b6115fb81611480565b6040516001600160a01b038216907fbc7cd75a20ee27fd9adebab32041f755214dbc6bffa90cc0225b39da2e5c2d3b90600090a250565b60606001600160a01b0383163b61169a5760405162461bcd60e51b815260206004820152602660248201527f416464726573733a2064656c65676174652063616c6c20746f206e6f6e2d636f6044820152651b9d1c9858dd60d21b60648201526084016104d7565b600080846001600160a01b0316846040516116b59190611994565b600060405180830381855af49150503d80600081146116f0576040519150601f19603f3d011682016040523d82523d6000602084013e6116f5565b606091505b509150915061171d8282604051806060016040528060278152602001611c0b60279139611726565b95945050505050565b606083156117355750816105b1565b8251156117455782518084602001fd5b8160405162461bcd60e51b81526004016104d791906119b0565b82805461176b90611b99565b90600052602060002090601f01602090048101928261178d57600085556117d3565b82601f106117a657805160ff19168380011785556117d3565b828001600101855582156117d3579182015b828111156117d35782518255916020019190600101906117b8565b506117df9291506117e3565b5090565b5b808211156117df57600081556001016117e4565b80356001600160a01b038116811461130457600080fd5b600060208284031215611820578081fd5b6105b1826117f8565b6000806040838503121561183b578081fd5b611844836117f8565b9150611852602084016117f8565b90509250929050565b60008060006060848603121561186f578081fd5b611878846117f8565b9250611886602085016117f8565b9150604084013590509250925092565b600080604083850312156118a8578182fd5b6118b1836117f8565b9150602083013567ffffffffffffffff808211156118cd578283fd5b818501915085601f8301126118e0578283fd5b8135818111156118f2576118f2611bd4565b604051601f8201601f19908116603f0116810190838211818310171561191a5761191a611bd4565b81604052828152886020848701011115611932578586fd5b82602086016020830137856020848301015280955050505050509250929050565b60008060408385031215611965578182fd5b61196e836117f8565b946020939093013593505050565b60006020828403121561198d578081fd5b5051919050565b600082516119a6818460208701611b6d565b9190910192915050565b60208152600082518060208401526119cf816040850160208701611b6d565b601f01601f19169190910160400192915050565b6020808252602c908201527f46756e6374696f6e206d7573742062652063616c6c6564207468726f7567682060408201526b19195b1959d85d1958d85b1b60a21b606082015260800190565b6020808252602c908201527f46756e6374696f6e206d7573742062652063616c6c6564207468726f7567682060408201526b6163746976652070726f787960a01b606082015260800190565b6020808252602e908201527f496e697469616c697a61626c653a20636f6e747261637420697320616c72656160408201526d191e481a5b9a5d1a585b1a5e995960921b606082015260800190565b6020808252818101527f4f776e61626c653a2063616c6c6572206973206e6f7420746865206f776e6572604082015260600190565b6020808252602b908201527f496e697469616c697a61626c653a20636f6e7472616374206973206e6f74206960408201526a6e697469616c697a696e6760a81b606082015260800190565b60008219821115611b6857634e487b7160e01b81526011600452602481fd5b500190565b60005b83811015611b88578181015183820152602001611b70565b83811115610e0f5750506000910152565b600181811c90821680611bad57607f821691505b60208210811415611bce57634e487b7160e01b600052602260045260246000fd5b50919050565b634e487b7160e01b600052604160045260246000fdfe360894a13ba1a3210667c828492db98dca3e2076cc3735a920a3ca505d382bbc416464726573733a206c6f772d6c6576656c2064656c65676174652063616c6c206661696c6564a26469706673582212202a62cf13fb5a447a92ec10ac015cc70e20b4cd1b75a2a3281e76b070d360619f64736f6c63430008040033496e697469616c697a61626c653a20636f6e747261637420697320616c726561",
  "linkReferences": {},
  "deployedLinkReferences": {}
}