{
  "_format": "hh-sol-artifact-1",
  "contractName": "UpgradeERC20UUPSV2",
  "sourceName": "contracts/upgradeable/UpgradeERC20UUPS/UpgradeERC20UUPSV2.sol",
  "abi": [
    {
      "anonymous": false,
      "inputs": [
        {
          "indexed": false,
          "internalType": "address",
          "name": "previousAdmin",
          "type": "address"
        },
        {
          "indexed": false,
          "internalType": "address",
          "name": "newAdmin",
          "type": "address"
        }
      ],
      "name": "AdminChanged",
      "type": "event"
    },
    {
      "anonymous": false,
      "inputs": [
        {
          "indexed": true,
          "internalType": "address",
          "name": "owner",
          "type": "address"
        },
        {
          "indexed": true,
          "internalType": "address",
          "name": "spender",
          "type": "address"
        },
        {
          "indexed": false,
          "internalType": "uint256",
          "name": "value",
          "type": "uint256"
        }
      ],
      "name": "Approval",
      "type": "event"
    },
    {
      "anonymous": false,
      "inputs": [
        {
          "indexed": true,
          "internalType": "address",
          "name": "beacon",
          "type": "address"
        }
      ],
      "name": "BeaconUpgraded",
      "type": "event"
    },
    {
      "anonymous": false,
      "inputs": [
        {
          "indexed": false,
          "internalType": "uint8",
          "name": "version",
          "type": "uint8"
        }
      ],
      "name": "Initialized",
      "type": "event"
    },
    {
      "anonymous": false,
      "inputs": [
        {
          "indexed": true,
          "internalType": "address",
          "name": "previousOwner",
          "type": "address"
        },
        {
          "indexed": true,
          "internalType": "address",
          "name": "newOwner",
          "type": "address"
        }
      ],
      "name": "OwnershipTransferred",
      "type": "event"
    },
    {
      "anonymous": false,
      "inputs": [
        {
          "indexed": false,
          "internalType": "address",
          "name": "account",
          "type": "address"
        }
      ],
      "name": "Paused",
      "type": "event"
    },
    {
      "anonymous": false,
      "inputs": [
        {
          "indexed": true,
          "internalType": "address",
          "name": "from",
          "type": "address"
        },
        {
          "indexed": true,
          "internalType": "address",
          "name": "to",
          "type": "address"
        },
        {
          "indexed": false,
          "internalType": "uint256",
          "name": "value",
          "type": "uint256"
        }
      ],
      "name": "Transfer",
      "type": "event"
    },
    {
      "anonymous": false,
      "inputs": [
        {
          "indexed": false,
          "internalType": "address",
          "name": "account",
          "type": "address"
        }
      ],
      "name": "Unpaused",
      "type": "event"
    },
    {
      "anonymous": false,
      "inputs": [
        {
          "indexed": true,
          "internalType": "address",
          "name": "implementation",
          "type": "address"
        }
      ],
      "name": "Upgraded",
      "type": "event"
    },
    {
      "inputs": [
        {
          "internalType": "address",
          "name": "owner",
          "type": "address"
        },
        {
          "internalType": "address",
          "name": "spender",
          "type": "address"
        }
      ],
      "name": "allowance",
      "outputs": [
        {
          "internalType": "uint256",
          "name": "",
          "type": "uint256"
        }
      ],
      "stateMutability": "view",
      "type": "function"
    },
    {
      "inputs": [
        {
          "internalType": "address",
          "name": "spender",
          "type": "address"
        },
        {
          "internalType": "uint256",
          "name": "amount",
          "type": "uint256"
        }
      ],
      "name": "approve",
      "outputs": [
        {
          "internalType": "bool",
          "name": "",
          "type": "bool"
        }
      ],
      "stateMutability": "nonpayable",
      "type": "function"
    },
    {
      "inputs": [
        {
          "internalType": "address",
          "name": "account",
          "type": "address"
        }
      ],
      "name": "balanceOf",
      "outputs": [
        {
          "internalType": "uint256",
          "name": "",
          "type": "uint256"
        }
      ],
      "stateMutability": "view",
      "type": "function"
    },
    {
      "inputs": [],
      "name": "decimals",
      "outputs": [
        {
          "internalType": "uint8",
          "name": "",
          "type": "uint8"
        }
      ],
      "stateMutability": "view",
      "type": "function"
    },
    {
      "inputs": [
        {
          "internalType": "address",
          "name": "spender",
          "type": "address"
        },
        {
          "internalType": "uint256",
          "name": "subtractedValue",
          "type": "uint256"
        }
      ],
      "name": "decreaseAllowance",
      "outputs": [
        {
          "internalType": "bool",
          "name": "",
          "type": "bool"
        }
      ],
      "stateMutability": "nonpayable",
      "type": "function"
    },
    {
      "inputs": [
        {
          "internalType": "address",
          "name": "spender",
          "type": "address"
        },
        {
          "internalType": "uint256",
          "name": "addedValue",
          "type": "uint256"
        }
      ],
      "name": "increaseAllowance",
      "outputs": [
        {
          "internalType": "bool",
          "name": "",
          "type": "bool"
        }
      ],
      "stateMutability": "nonpayable",
      "type": "function"
    },
    {
      "inputs": [],
      "name": "initialize",
      "outputs": [],
      "stateMutability": "nonpayable",
      "type": "function"
    },
    {
      "inputs": [],
      "name": "name",
      "outputs": [
        {
          "internalType": "string",
          "name": "",
          "type": "string"
        }
      ],
      "stateMutability": "view",
      "type": "function"
    },
    {
      "inputs": [],
      "name": "owner",
      "outputs": [
        {
          "internalType": "address",
          "name": "",
          "type": "address"
        }
      ],
      "stateMutability": "view",
      "type": "function"
    },
    {
      "inputs": [],
      "name": "pause",
      "outputs": [],
      "stateMutability": "nonpayable",
      "type": "function"
    },
    {
      "inputs": [],
      "name": "paused",
      "outputs": [
        {
          "internalType": "bool",
          "name": "",
          "type": "bool"
        }
      ],
      "stateMutability": "view",
      "type": "function"
    },
    {
      "inputs": [],
      "name": "proxiableUUID",
      "outputs": [
        {
          "internalType": "bytes32",
          "name": "",
          "type": "bytes32"
        }
      ],
      "stateMutability": "view",
      "type": "function"
    },
    {
      "inputs": [],
      "name": "renounceOwnership",
      "outputs": [],
      "stateMutability": "nonpayable",
      "type": "function"
    },
    {
      "inputs": [],
      "name": "symbol",
      "outputs": [
        {
          "internalType": "string",
          "name": "",
          "type": "string"
        }
      ],
      "stateMutability": "view",
      "type": "function"
    },
    {
      "inputs": [],
      "name": "totalSupply",
      "outputs": [
        {
          "internalType": "uint256",
          "name": "",
          "type": "uint256"
        }
      ],
      "stateMutability": "view",
      "type": "function"
    },
    {
      "inputs": [
        {
          "internalType": "address",
          "name": "to",
          "type": "address"
        },
        {
          "internalType": "uint256",
          "name": "amount",
          "type": "uint256"
        }
      ],
      "name": "transfer",
      "outputs": [
        {
          "internalType": "bool",
          "name": "",
          "type": "bool"
        }
      ],
      "stateMutability": "nonpayable",
      "type": "function"
    },
    {
      "inputs": [
        {
          "internalType": "address",
          "name": "from",
          "type": "address"
        },
        {
          "internalType": "address",
          "name": "to",
          "type": "address"
        },
        {
          "internalType": "uint256",
          "name": "amount",
          "type": "uint256"
        }
      ],
      "name": "transferFrom",
      "outputs": [
        {
          "internalType": "bool",
          "name": "",
          "type": "bool"
        }
      ],
      "stateMutability": "nonpayable",
      "type": "function"
    },
    {
      "inputs": [
        {
          "internalType": "address",
          "name": "newOwner",
          "type": "address"
        }
      ],
      "name": "transferOwnership",
      "outputs": [],
      "stateMutability": "nonpayable",
      "type": "function"
    },
    {
      "inputs": [],
      "name": "unpause",
      "outputs": [],
      "stateMutability": "nonpayable",
      "type": "function"
    },
    {
      "inputs": [
        {
          "internalType": "address",
          "name": "newImplementation",
          "type": "address"
        }
      ],
      "name": "upgradeTo",
      "outputs": [],
      "stateMutability": "nonpayable",
      "type": "function"
    },
    {
      "inputs": [
        {
          "internalType": "address",
          "name": "newImplementation",
          "type": "address"
        },
        {
          "internalType": "bytes",
          "name": "data",
          "type": "bytes"
        }
      ],
      "name": "upgradeToAndCall",
      "outputs": [],
      "stateMutability": "payable",
      "type": "function"
    },
    {
      "inputs": [],
      "name": "upgradeToV2",
      "outputs": [],
      "stateMutability": "nonpayable",
      "type": "function"
    },
    {
      "inputs": [],
      "name": "version",
      "outputs": [
        {
          "internalType": "uint256",
          "name": "",
          "type": "uint256"
        }
      ],
      "stateMutability": "view",
      "type": "function"
    }
  ],
  "bytecode": "0x60a06040523060601b6080523480156200001857600080fd5b50620000236200002f565b600161012d556200015f565b6200003b60ff6200003e565b50565b60008054610100900460ff1615620000d7578160ff16600114801562000077575062000075306200015060201b62000a931760201c565b155b620000cf5760405162461bcd60e51b815260206004820152602e602482015260008051602062001c2c83398151915260448201526d191e481a5b9a5d1a585b1a5e995960921b60648201526084015b60405180910390fd5b506000919050565b60005460ff808416911610620001365760405162461bcd60e51b815260206004820152602e602482015260008051602062001c2c83398151915260448201526d191e481a5b9a5d1a585b1a5e995960921b6064820152608401620000c6565b506000805460ff191660ff92909216919091179055600190565b6001600160a01b03163b151590565b60805160601c611a926200019a600039600081816104cb015281816105140152818161060a0152818161064a01526106dd0152611a926000f3fe6080604052600436106101405760003560e01c80635c975abb116100b657806395d89b411161006f57806395d89b4114610346578063a457c2d71461035b578063a9059cbb1461037b578063cc01053e1461039b578063dd62ed3e146103b0578063f2fde38b146103d057600080fd5b80635c975abb1461029157806370a08231146102a9578063715018a6146102df5780638129fc1c146102f45780638456cb59146103095780638da5cb5b1461031e57600080fd5b80633659cfe6116101085780633659cfe6146101fb578063395093511461021d5780633f4ba83a1461023d5780634f1ef2861461025257806352d1902d1461026557806354fd4d501461027a57600080fd5b806306fdde0314610145578063095ea7b31461017057806318160ddd146101a057806323b872dd146101bf578063313ce567146101df575b600080fd5b34801561015157600080fd5b5061015a6103f0565b60405161016791906117db565b60405180910390f35b34801561017c57600080fd5b5061019061018b36600461177e565b610482565b6040519015158152602001610167565b3480156101ac57600080fd5b506035545b604051908152602001610167565b3480156101cb57600080fd5b506101906101da366004611686565b61049a565b3480156101eb57600080fd5b5060405160128152602001610167565b34801561020757600080fd5b5061021b61021636600461163a565b6104c0565b005b34801561022957600080fd5b5061019061023836600461177e565b6105a9565b34801561024957600080fd5b5061021b6105cb565b61021b6102603660046116c1565b6105ff565b34801561027157600080fd5b506101b16106d0565b34801561028657600080fd5b506101b161012d5481565b34801561029d57600080fd5b5060655460ff16610190565b3480156102b557600080fd5b506101b16102c436600461163a565b6001600160a01b031660009081526033602052604090205490565b3480156102eb57600080fd5b5061021b610783565b34801561030057600080fd5b5061021b6107b7565b34801561031557600080fd5b5061021b61088c565b34801561032a57600080fd5b506097546040516001600160a01b039091168152602001610167565b34801561035257600080fd5b5061015a6108be565b34801561036757600080fd5b5061019061037636600461177e565b6108cd565b34801561038757600080fd5b5061019061039636600461177e565b610953565b3480156103a757600080fd5b5061021b610961565b3480156103bc57600080fd5b506101b16103cb366004611654565b6109d0565b3480156103dc57600080fd5b5061021b6103eb36600461163a565b6109fb565b6060603680546103ff906119c4565b80601f016020809104026020016040519081016040528092919081815260200182805461042b906119c4565b80156104785780601f1061044d57610100808354040283529160200191610478565b820191906000526020600020905b81548152906001019060200180831161045b57829003601f168201915b5050505050905090565b600033610490818585610aa2565b5060019392505050565b6000336104a8858285610bc6565b6104b3858585610c40565b60019150505b9392505050565b306001600160a01b037f00000000000000000000000000000000000000000000000000000000000000001614156105125760405162461bcd60e51b81526004016105099061180e565b60405180910390fd5b7f00000000000000000000000000000000000000000000000000000000000000006001600160a01b031661055b600080516020611a16833981519152546001600160a01b031690565b6001600160a01b0316146105815760405162461bcd60e51b81526004016105099061185a565b61058a81610e19565b604080516000808252602082019092526105a691839190610e43565b50565b6000336104908185856105bc83836109d0565b6105c69190611974565b610aa2565b6097546001600160a01b031633146105f55760405162461bcd60e51b8152600401610509906118f4565b6105fd610fc2565b565b306001600160a01b037f00000000000000000000000000000000000000000000000000000000000000001614156106485760405162461bcd60e51b81526004016105099061180e565b7f00000000000000000000000000000000000000000000000000000000000000006001600160a01b0316610691600080516020611a16833981519152546001600160a01b031690565b6001600160a01b0316146106b75760405162461bcd60e51b81526004016105099061185a565b6106c082610e19565b6106cc82826001610e43565b5050565b6000306001600160a01b037f000000000000000000000000000000000000000000000000000000000000000016146107705760405162461bcd60e51b815260206004820152603860248201527f555550535570677261646561626c653a206d757374206e6f742062652063616c60448201527f6c6564207468726f7567682064656c656761746563616c6c00000000000000006064820152608401610509565b50600080516020611a1683398151915290565b6097546001600160a01b031633146107ad5760405162461bcd60e51b8152600401610509906118f4565b6105fd6000611055565b60006107c360016110a7565b905080156107db576000805461ff0019166101001790555b61082c6040518060400160405280601281526020017155706772616465204552433230205555505360701b81525060405180604001604052806005815260200164554532305560d81b815250611134565b610834611165565b61083c611194565b6108446111c3565b80156105a6576000805461ff0019169055604051600181527f7f26b83ff96e1f2b6a682f133852f6798a09c465da95921460cefb38474024989060200160405180910390a150565b6097546001600160a01b031633146108b65760405162461bcd60e51b8152600401610509906118f4565b6105fd6111ea565b6060603780546103ff906119c4565b600033816108db82866109d0565b90508381101561093b5760405162461bcd60e51b815260206004820152602560248201527f45524332303a2064656372656173656420616c6c6f77616e63652062656c6f77604482015264207a65726f60d81b6064820152608401610509565b6109488286868403610aa2565b506001949350505050565b600033610490818585610c40565b600261012d54106109c85760405162461bcd60e51b815260206004820152602b60248201527f44654875625374616b696e673a20416c7265616479207570677261646564207460448201526a6f2076657273696f6e203360a81b6064820152608401610509565b600261012d55565b6001600160a01b03918216600090815260346020908152604080832093909416825291909152205490565b6097546001600160a01b03163314610a255760405162461bcd60e51b8152600401610509906118f4565b6001600160a01b038116610a8a5760405162461bcd60e51b815260206004820152602660248201527f4f776e61626c653a206e6577206f776e657220697320746865207a65726f206160448201526564647265737360d01b6064820152608401610509565b6105a681611055565b6001600160a01b03163b151590565b6001600160a01b038316610b045760405162461bcd60e51b8152602060048201526024808201527f45524332303a20617070726f76652066726f6d20746865207a65726f206164646044820152637265737360e01b6064820152608401610509565b6001600160a01b038216610b655760405162461bcd60e51b815260206004820152602260248201527f45524332303a20617070726f766520746f20746865207a65726f206164647265604482015261737360f01b6064820152608401610509565b6001600160a01b0383811660008181526034602090815260408083209487168084529482529182902085905590518481527f8c5be1e5ebec7d5bd14f71427d1e84f3dd0314c0f7b2291e5b200ac8c7c3b925910160405180910390a3505050565b6000610bd284846109d0565b90506000198114610c3a5781811015610c2d5760405162461bcd60e51b815260206004820152601d60248201527f45524332303a20696e73756666696369656e7420616c6c6f77616e63650000006044820152606401610509565b610c3a8484848403610aa2565b50505050565b6001600160a01b038316610ca45760405162461bcd60e51b815260206004820152602560248201527f45524332303a207472616e736665722066726f6d20746865207a65726f206164604482015264647265737360d81b6064820152608401610509565b6001600160a01b038216610d065760405162461bcd60e51b815260206004820152602360248201527f45524332303a207472616e7366657220746f20746865207a65726f206164647260448201526265737360e81b6064820152608401610509565b610d11838383611265565b6001600160a01b03831660009081526033602052604090205481811015610d895760405162461bcd60e51b815260206004820152602660248201527f45524332303a207472616e7366657220616d6f756e7420657863656564732062604482015265616c616e636560d01b6064820152608401610509565b6001600160a01b03808516600090815260336020526040808220858503905591851681529081208054849290610dc0908490611974565b92505081905550826001600160a01b0316846001600160a01b03167fddf252ad1be2c89b69c2b068fc378daa952ba7f163c4a11628f55a4df523b3ef84604051610e0c91815260200190565b60405180910390a3610c3a565b6097546001600160a01b031633146105a65760405162461bcd60e51b8152600401610509906118f4565b7f4910fdfa16fed3260ed0e7147f7cc6da11a60208b5b9406d12a635614ffd91435460ff1615610e7b57610e76836112ab565b505050565b826001600160a01b03166352d1902d6040518163ffffffff1660e01b815260040160206040518083038186803b158015610eb457600080fd5b505afa925050508015610ee4575060408051601f3d908101601f19168201909252610ee1918101906117a7565b60015b610f475760405162461bcd60e51b815260206004820152602e60248201527f45524331393637557067726164653a206e657720696d706c656d656e7461746960448201526d6f6e206973206e6f74205555505360901b6064820152608401610509565b600080516020611a168339815191528114610fb65760405162461bcd60e51b815260206004820152602960248201527f45524331393637557067726164653a20756e737570706f727465642070726f786044820152681a58589b195555525160ba1b6064820152608401610509565b50610e76838383611347565b60655460ff1661100b5760405162461bcd60e51b815260206004820152601460248201527314185d5cd8589b194e881b9bdd081c185d5cd95960621b6044820152606401610509565b6065805460ff191690557f5db9ee0a495bf2e6ff9c91a7834c1ba4fdd244a5e8aa4e537bd38aeae4b073aa335b6040516001600160a01b03909116815260200160405180910390a1565b609780546001600160a01b038381166001600160a01b0319831681179093556040519116919082907f8be0079c531659141344cd1fd0a4f28419497f9722a3daafe3b4186f6b6457e090600090a35050565b60008054610100900460ff16156110ee578160ff1660011480156110ca5750303b155b6110e65760405162461bcd60e51b8152600401610509906118a6565b506000919050565b60005460ff8084169116106111155760405162461bcd60e51b8152600401610509906118a6565b506000805460ff191660ff92909216919091179055600190565b919050565b600054610100900460ff1661115b5760405162461bcd60e51b815260040161050990611929565b6106cc828261136c565b600054610100900460ff1661118c5760405162461bcd60e51b815260040161050990611929565b6105fd6113ba565b600054610100900460ff166111bb5760405162461bcd60e51b815260040161050990611929565b6105fd6113ed565b600054610100900460ff166105fd5760405162461bcd60e51b815260040161050990611929565b60655460ff16156112305760405162461bcd60e51b815260206004820152601060248201526f14185d5cd8589b194e881c185d5cd95960821b6044820152606401610509565b6065805460ff191660011790557f62e78cea01bee320cd4e420270b5ea74000d11b0c9f74754ebdbfc544b05a2586110383390565b60655460ff1615610e765760405162461bcd60e51b815260206004820152601060248201526f14185d5cd8589b194e881c185d5cd95960821b6044820152606401610509565b6001600160a01b0381163b6113185760405162461bcd60e51b815260206004820152602d60248201527f455243313936373a206e657720696d706c656d656e746174696f6e206973206e60448201526c1bdd08184818dbdb9d1c9858dd609a1b6064820152608401610509565b600080516020611a1683398151915280546001600160a01b0319166001600160a01b0392909216919091179055565b6113508361141d565b60008251118061135d5750805b15610e7657610c3a838361145d565b600054610100900460ff166113935760405162461bcd60e51b815260040161050990611929565b81516113a690603690602085019061158a565b508051610e7690603790602084019061158a565b600054610100900460ff166113e15760405162461bcd60e51b815260040161050990611929565b6065805460ff19169055565b600054610100900460ff166114145760405162461bcd60e51b815260040161050990611929565b6105fd33611055565b611426816112ab565b6040516001600160a01b038216907fbc7cd75a20ee27fd9adebab32041f755214dbc6bffa90cc0225b39da2e5c2d3b90600090a250565b60606001600160a01b0383163b6114c55760405162461bcd60e51b815260206004820152602660248201527f416464726573733a2064656c65676174652063616c6c20746f206e6f6e2d636f6044820152651b9d1c9858dd60d21b6064820152608401610509565b600080846001600160a01b0316846040516114e091906117bf565b600060405180830381855af49150503d806000811461151b576040519150601f19603f3d011682016040523d82523d6000602084013e611520565b606091505b50915091506115488282604051806060016040528060278152602001611a3660279139611551565b95945050505050565b606083156115605750816104b9565b8251156115705782518084602001fd5b8160405162461bcd60e51b815260040161050991906117db565b828054611596906119c4565b90600052602060002090601f0160209004810192826115b857600085556115fe565b82601f106115d157805160ff19168380011785556115fe565b828001600101855582156115fe579182015b828111156115fe5782518255916020019190600101906115e3565b5061160a92915061160e565b5090565b5b8082111561160a576000815560010161160f565b80356001600160a01b038116811461112f57600080fd5b60006020828403121561164b578081fd5b6104b982611623565b60008060408385031215611666578081fd5b61166f83611623565b915061167d60208401611623565b90509250929050565b60008060006060848603121561169a578081fd5b6116a384611623565b92506116b160208501611623565b9150604084013590509250925092565b600080604083850312156116d3578182fd5b6116dc83611623565b9150602083013567ffffffffffffffff808211156116f8578283fd5b818501915085601f83011261170b578283fd5b81358181111561171d5761171d6119ff565b604051601f8201601f19908116603f01168101908382118183101715611745576117456119ff565b8160405282815288602084870101111561175d578586fd5b82602086016020830137856020848301015280955050505050509250929050565b60008060408385031215611790578182fd5b61179983611623565b946020939093013593505050565b6000602082840312156117b8578081fd5b5051919050565b600082516117d1818460208701611998565b9190910192915050565b60208152600082518060208401526117fa816040850160208701611998565b601f01601f19169190910160400192915050565b6020808252602c908201527f46756e6374696f6e206d7573742062652063616c6c6564207468726f7567682060408201526b19195b1959d85d1958d85b1b60a21b606082015260800190565b6020808252602c908201527f46756e6374696f6e206d7573742062652063616c6c6564207468726f7567682060408201526b6163746976652070726f787960a01b606082015260800190565b6020808252602e908201527f496e697469616c697a61626c653a20636f6e747261637420697320616c72656160408201526d191e481a5b9a5d1a585b1a5e995960921b606082015260800190565b6020808252818101527f4f776e61626c653a2063616c6c6572206973206e6f7420746865206f776e6572604082015260600190565b6020808252602b908201527f496e697469616c697a61626c653a20636f6e7472616374206973206e6f74206960408201526a6e697469616c697a696e6760a81b606082015260800190565b6000821982111561199357634e487b7160e01b81526011600452602481fd5b500190565b60005b838110156119b357818101518382015260200161199b565b83811115610c3a5750506000910152565b600181811c908216806119d857607f821691505b602082108114156119f957634e487b7160e01b600052602260045260246000fd5b50919050565b634e487b7160e01b600052604160045260246000fdfe360894a13ba1a3210667c828492db98dca3e2076cc3735a920a3ca505d382bbc416464726573733a206c6f772d6c6576656c2064656c65676174652063616c6c206661696c6564a2646970667358221220fe89965c21e2a81c7b4db769024de35c16fb1f0940c7288459dea8b1d579cba364736f6c63430008040033496e697469616c697a61626c653a20636f6e747261637420697320616c726561",
  "linkReferences": {},
  "deployedLinkReferences": {}
}