{
  "_format": "hh-sol-artifact-1",
  "contractName": "UpgradeERC20UUPSV4",
  "sourceName": "contracts/upgradeable/UpgradeERC20UUPS/UpgradeERC20UUPSV4.sol",
  "abi": [
    {
      "anonymous": false,
      "inputs": [
        {
          "indexed": false,
          "internalType": "address",
          "name": "previousAdmin",
          "type": "address"
        },
        {
          "indexed": false,
          "internalType": "address",
          "name": "newAdmin",
          "type": "address"
        }
      ],
      "name": "AdminChanged",
      "type": "event"
    },
    {
      "anonymous": false,
      "inputs": [
        {
          "indexed": true,
          "internalType": "address",
          "name": "owner",
          "type": "address"
        },
        {
          "indexed": true,
          "internalType": "address",
          "name": "spender",
          "type": "address"
        },
        {
          "indexed": false,
          "internalType": "uint256",
          "name": "value",
          "type": "uint256"
        }
      ],
      "name": "Approval",
      "type": "event"
    },
    {
      "anonymous": false,
      "inputs": [
        {
          "indexed": true,
          "internalType": "address",
          "name": "beacon",
          "type": "address"
        }
      ],
      "name": "BeaconUpgraded",
      "type": "event"
    },
    {
      "anonymous": false,
      "inputs": [
        {
          "indexed": false,
          "internalType": "uint8",
          "name": "version",
          "type": "uint8"
        }
      ],
      "name": "Initialized",
      "type": "event"
    },
    {
      "anonymous": false,
      "inputs": [
        {
          "indexed": true,
          "internalType": "address",
          "name": "previousOwner",
          "type": "address"
        },
        {
          "indexed": true,
          "internalType": "address",
          "name": "newOwner",
          "type": "address"
        }
      ],
      "name": "OwnershipTransferred",
      "type": "event"
    },
    {
      "anonymous": false,
      "inputs": [
        {
          "indexed": false,
          "internalType": "address",
          "name": "account",
          "type": "address"
        }
      ],
      "name": "Paused",
      "type": "event"
    },
    {
      "anonymous": false,
      "inputs": [
        {
          "indexed": true,
          "internalType": "address",
          "name": "from",
          "type": "address"
        },
        {
          "indexed": true,
          "internalType": "address",
          "name": "to",
          "type": "address"
        },
        {
          "indexed": false,
          "internalType": "uint256",
          "name": "value",
          "type": "uint256"
        }
      ],
      "name": "Transfer",
      "type": "event"
    },
    {
      "anonymous": false,
      "inputs": [
        {
          "indexed": false,
          "internalType": "address",
          "name": "account",
          "type": "address"
        }
      ],
      "name": "Unpaused",
      "type": "event"
    },
    {
      "anonymous": false,
      "inputs": [
        {
          "indexed": true,
          "internalType": "address",
          "name": "implementation",
          "type": "address"
        }
      ],
      "name": "Upgraded",
      "type": "event"
    },
    {
      "inputs": [
        {
          "internalType": "address",
          "name": "owner",
          "type": "address"
        },
        {
          "internalType": "address",
          "name": "spender",
          "type": "address"
        }
      ],
      "name": "allowance",
      "outputs": [
        {
          "internalType": "uint256",
          "name": "",
          "type": "uint256"
        }
      ],
      "stateMutability": "view",
      "type": "function"
    },
    {
      "inputs": [
        {
          "internalType": "address",
          "name": "spender",
          "type": "address"
        },
        {
          "internalType": "uint256",
          "name": "amount",
          "type": "uint256"
        }
      ],
      "name": "approve",
      "outputs": [
        {
          "internalType": "bool",
          "name": "",
          "type": "bool"
        }
      ],
      "stateMutability": "nonpayable",
      "type": "function"
    },
    {
      "inputs": [
        {
          "internalType": "address",
          "name": "account",
          "type": "address"
        }
      ],
      "name": "balanceOf",
      "outputs": [
        {
          "internalType": "uint256",
          "name": "",
          "type": "uint256"
        }
      ],
      "stateMutability": "view",
      "type": "function"
    },
    {
      "inputs": [],
      "name": "decimals",
      "outputs": [
        {
          "internalType": "uint8",
          "name": "",
          "type": "uint8"
        }
      ],
      "stateMutability": "view",
      "type": "function"
    },
    {
      "inputs": [
        {
          "internalType": "address",
          "name": "spender",
          "type": "address"
        },
        {
          "internalType": "uint256",
          "name": "subtractedValue",
          "type": "uint256"
        }
      ],
      "name": "decreaseAllowance",
      "outputs": [
        {
          "internalType": "bool",
          "name": "",
          "type": "bool"
        }
      ],
      "stateMutability": "nonpayable",
      "type": "function"
    },
    {
      "inputs": [
        {
          "internalType": "address",
          "name": "spender",
          "type": "address"
        },
        {
          "internalType": "uint256",
          "name": "addedValue",
          "type": "uint256"
        }
      ],
      "name": "increaseAllowance",
      "outputs": [
        {
          "internalType": "bool",
          "name": "",
          "type": "bool"
        }
      ],
      "stateMutability": "nonpayable",
      "type": "function"
    },
    {
      "inputs": [],
      "name": "initialize",
      "outputs": [],
      "stateMutability": "nonpayable",
      "type": "function"
    },
    {
      "inputs": [],
      "name": "name",
      "outputs": [
        {
          "internalType": "string",
          "name": "",
          "type": "string"
        }
      ],
      "stateMutability": "view",
      "type": "function"
    },
    {
      "inputs": [],
      "name": "owner",
      "outputs": [
        {
          "internalType": "address",
          "name": "",
          "type": "address"
        }
      ],
      "stateMutability": "view",
      "type": "function"
    },
    {
      "inputs": [],
      "name": "pause",
      "outputs": [],
      "stateMutability": "nonpayable",
      "type": "function"
    },
    {
      "inputs": [],
      "name": "paused",
      "outputs": [
        {
          "internalType": "bool",
          "name": "",
          "type": "bool"
        }
      ],
      "stateMutability": "view",
      "type": "function"
    },
    {
      "inputs": [],
      "name": "proxiableUUID",
      "outputs": [
        {
          "internalType": "bytes32",
          "name": "",
          "type": "bytes32"
        }
      ],
      "stateMutability": "view",
      "type": "function"
    },
    {
      "inputs": [],
      "name": "renounceOwnership",
      "outputs": [],
      "stateMutability": "nonpayable",
      "type": "function"
    },
    {
      "inputs": [],
      "name": "symbol",
      "outputs": [
        {
          "internalType": "string",
          "name": "",
          "type": "string"
        }
      ],
      "stateMutability": "view",
      "type": "function"
    },
    {
      "inputs": [],
      "name": "totalSupply",
      "outputs": [
        {
          "internalType": "uint256",
          "name": "",
          "type": "uint256"
        }
      ],
      "stateMutability": "view",
      "type": "function"
    },
    {
      "inputs": [
        {
          "internalType": "address",
          "name": "to",
          "type": "address"
        },
        {
          "internalType": "uint256",
          "name": "amount",
          "type": "uint256"
        }
      ],
      "name": "transfer",
      "outputs": [
        {
          "internalType": "bool",
          "name": "",
          "type": "bool"
        }
      ],
      "stateMutability": "nonpayable",
      "type": "function"
    },
    {
      "inputs": [
        {
          "internalType": "address",
          "name": "from",
          "type": "address"
        },
        {
          "internalType": "address",
          "name": "to",
          "type": "address"
        },
        {
          "internalType": "uint256",
          "name": "amount",
          "type": "uint256"
        }
      ],
      "name": "transferFrom",
      "outputs": [
        {
          "internalType": "bool",
          "name": "",
          "type": "bool"
        }
      ],
      "stateMutability": "nonpayable",
      "type": "function"
    },
    {
      "inputs": [
        {
          "internalType": "address",
          "name": "newOwner",
          "type": "address"
        }
      ],
      "name": "transferOwnership",
      "outputs": [],
      "stateMutability": "nonpayable",
      "type": "function"
    },
    {
      "inputs": [],
      "name": "unpause",
      "outputs": [],
      "stateMutability": "nonpayable",
      "type": "function"
    },
    {
      "inputs": [
        {
          "internalType": "address",
          "name": "newImplementation",
          "type": "address"
        }
      ],
      "name": "upgradeTo",
      "outputs": [],
      "stateMutability": "nonpayable",
      "type": "function"
    },
    {
      "inputs": [
        {
          "internalType": "address",
          "name": "newImplementation",
          "type": "address"
        },
        {
          "internalType": "bytes",
          "name": "data",
          "type": "bytes"
        }
      ],
      "name": "upgradeToAndCall",
      "outputs": [],
      "stateMutability": "payable",
      "type": "function"
    },
    {
      "inputs": [],
      "name": "upgradeToV2",
      "outputs": [],
      "stateMutability": "nonpayable",
      "type": "function"
    },
    {
      "inputs": [],
      "name": "upgradeToV3",
      "outputs": [],
      "stateMutability": "nonpayable",
      "type": "function"
    },
    {
      "inputs": [],
      "name": "upgradeToV4",
      "outputs": [],
      "stateMutability": "nonpayable",
      "type": "function"
    },
    {
      "inputs": [],
      "name": "version",
      "outputs": [
        {
          "internalType": "uint256",
          "name": "",
          "type": "uint256"
        }
      ],
      "stateMutability": "view",
      "type": "function"
    }
  ],
  "bytecode": "0x60a06040523060601b6080523480156200001857600080fd5b50620000236200002f565b600161012d556200015f565b6200003b60ff6200003e565b50565b60008054610100900460ff1615620000d7578160ff16600114801562000077575062000075306200015060201b62000bc91760201c565b155b620000cf5760405162461bcd60e51b815260206004820152602e602482015260008051602062001d6283398151915260448201526d191e481a5b9a5d1a585b1a5e995960921b60648201526084015b60405180910390fd5b506000919050565b60005460ff808416911610620001365760405162461bcd60e51b815260206004820152602e602482015260008051602062001d6283398151915260448201526d191e481a5b9a5d1a585b1a5e995960921b6064820152608401620000c6565b506000805460ff191660ff92909216919091179055600190565b6001600160a01b03163b151590565b60805160601c611bc86200019a6000396000818161051b01528181610564015281816106cd0152818161070d01526107a00152611bc86000f3fe6080604052600436106101665760003560e01c80635c975abb116100d157806395d89b411161008a578063b211665711610064578063b2116657146103d6578063cc01053e146103eb578063dd62ed3e14610400578063f2fde38b1461042057600080fd5b806395d89b4114610381578063a457c2d714610396578063a9059cbb146103b657600080fd5b80635c975abb146102cc57806370a08231146102e4578063715018a61461031a5780638129fc1c1461032f5780638456cb59146103445780638da5cb5b1461035957600080fd5b8063395093511161012357806339509351146102435780633b133260146102635780633f4ba83a146102785780634f1ef2861461028d57806352d1902d146102a057806354fd4d50146102b557600080fd5b806306fdde031461016b578063095ea7b31461019657806318160ddd146101c657806323b872dd146101e5578063313ce567146102055780633659cfe614610221575b600080fd5b34801561017757600080fd5b50610180610440565b60405161018d9190611911565b60405180910390f35b3480156101a257600080fd5b506101b66101b13660046118b4565b6104d2565b604051901515815260200161018d565b3480156101d257600080fd5b506035545b60405190815260200161018d565b3480156101f157600080fd5b506101b66102003660046117bc565b6104ea565b34801561021157600080fd5b506040516012815260200161018d565b34801561022d57600080fd5b5061024161023c366004611770565b610510565b005b34801561024f57600080fd5b506101b661025e3660046118b4565b6105f9565b34801561026f57600080fd5b5061024161061b565b34801561028457600080fd5b5061024161068e565b61024161029b3660046117f7565b6106c2565b3480156102ac57600080fd5b506101d7610793565b3480156102c157600080fd5b506101d761012d5481565b3480156102d857600080fd5b5060655460ff166101b6565b3480156102f057600080fd5b506101d76102ff366004611770565b6001600160a01b031660009081526033602052604090205490565b34801561032657600080fd5b50610241610846565b34801561033b57600080fd5b5061024161087a565b34801561035057600080fd5b5061024161094f565b34801561036557600080fd5b506097546040516001600160a01b03909116815260200161018d565b34801561038d57600080fd5b50610180610981565b3480156103a257600080fd5b506101b66103b13660046118b4565b610990565b3480156103c257600080fd5b506101b66103d13660046118b4565b610a16565b3480156103e257600080fd5b50610241610a24565b3480156103f757600080fd5b50610241610a97565b34801561040c57600080fd5b506101d761041b36600461178a565b610b06565b34801561042c57600080fd5b5061024161043b366004611770565b610b31565b60606036805461044f90611afa565b80601f016020809104026020016040519081016040528092919081815260200182805461047b90611afa565b80156104c85780601f1061049d576101008083540402835291602001916104c8565b820191906000526020600020905b8154815290600101906020018083116104ab57829003601f168201915b5050505050905090565b6000336104e0818585610bd8565b5060019392505050565b6000336104f8858285610cfc565b610503858585610d76565b60019150505b9392505050565b306001600160a01b037f00000000000000000000000000000000000000000000000000000000000000001614156105625760405162461bcd60e51b815260040161055990611944565b60405180910390fd5b7f00000000000000000000000000000000000000000000000000000000000000006001600160a01b03166105ab600080516020611b4c833981519152546001600160a01b031690565b6001600160a01b0316146105d15760405162461bcd60e51b815260040161055990611990565b6105da81610f4f565b604080516000808252602082019092526105f691839190610f79565b50565b6000336104e081858561060c8383610b06565b6106169190611aaa565b610bd8565b600461012d54106106865760405162461bcd60e51b815260206004820152602f60248201527f557067726164654552433230555550533a20416c72656164792075706772616460448201526e1959081d1bc81d995c9cda5bdb880d608a1b6064820152608401610559565b600461012d55565b6097546001600160a01b031633146106b85760405162461bcd60e51b815260040161055990611a2a565b6106c06110f8565b565b306001600160a01b037f000000000000000000000000000000000000000000000000000000000000000016141561070b5760405162461bcd60e51b815260040161055990611944565b7f00000000000000000000000000000000000000000000000000000000000000006001600160a01b0316610754600080516020611b4c833981519152546001600160a01b031690565b6001600160a01b03161461077a5760405162461bcd60e51b815260040161055990611990565b61078382610f4f565b61078f82826001610f79565b5050565b6000306001600160a01b037f000000000000000000000000000000000000000000000000000000000000000016146108335760405162461bcd60e51b815260206004820152603860248201527f555550535570677261646561626c653a206d757374206e6f742062652063616c60448201527f6c6564207468726f7567682064656c656761746563616c6c00000000000000006064820152608401610559565b50600080516020611b4c83398151915290565b6097546001600160a01b031633146108705760405162461bcd60e51b815260040161055990611a2a565b6106c0600061118b565b600061088660016111dd565b9050801561089e576000805461ff0019166101001790555b6108ef6040518060400160405280601281526020017155706772616465204552433230205555505360701b81525060405180604001604052806005815260200164554532305560d81b81525061126a565b6108f761129b565b6108ff6112ca565b6109076112f9565b80156105f6576000805461ff0019169055604051600181527f7f26b83ff96e1f2b6a682f133852f6798a09c465da95921460cefb38474024989060200160405180910390a150565b6097546001600160a01b031633146109795760405162461bcd60e51b815260040161055990611a2a565b6106c0611320565b60606037805461044f90611afa565b6000338161099e8286610b06565b9050838110156109fe5760405162461bcd60e51b815260206004820152602560248201527f45524332303a2064656372656173656420616c6c6f77616e63652062656c6f77604482015264207a65726f60d81b6064820152608401610559565b610a0b8286868403610bd8565b506001949350505050565b6000336104e0818585610d76565b600361012d5410610a8f5760405162461bcd60e51b815260206004820152602f60248201527f557067726164654552433230555550533a20416c72656164792075706772616460448201526e656420746f2076657273696f6e203360881b6064820152608401610559565b600361012d55565b600261012d5410610afe5760405162461bcd60e51b815260206004820152602b60248201527f44654875625374616b696e673a20416c7265616479207570677261646564207460448201526a6f2076657273696f6e203360a81b6064820152608401610559565b600261012d55565b6001600160a01b03918216600090815260346020908152604080832093909416825291909152205490565b6097546001600160a01b03163314610b5b5760405162461bcd60e51b815260040161055990611a2a565b6001600160a01b038116610bc05760405162461bcd60e51b815260206004820152602660248201527f4f776e61626c653a206e6577206f776e657220697320746865207a65726f206160448201526564647265737360d01b6064820152608401610559565b6105f68161118b565b6001600160a01b03163b151590565b6001600160a01b038316610c3a5760405162461bcd60e51b8152602060048201526024808201527f45524332303a20617070726f76652066726f6d20746865207a65726f206164646044820152637265737360e01b6064820152608401610559565b6001600160a01b038216610c9b5760405162461bcd60e51b815260206004820152602260248201527f45524332303a20617070726f766520746f20746865207a65726f206164647265604482015261737360f01b6064820152608401610559565b6001600160a01b0383811660008181526034602090815260408083209487168084529482529182902085905590518481527f8c5be1e5ebec7d5bd14f71427d1e84f3dd0314c0f7b2291e5b200ac8c7c3b925910160405180910390a3505050565b6000610d088484610b06565b90506000198114610d705781811015610d635760405162461bcd60e51b815260206004820152601d60248201527f45524332303a20696e73756666696369656e7420616c6c6f77616e63650000006044820152606401610559565b610d708484848403610bd8565b50505050565b6001600160a01b038316610dda5760405162461bcd60e51b815260206004820152602560248201527f45524332303a207472616e736665722066726f6d20746865207a65726f206164604482015264647265737360d81b6064820152608401610559565b6001600160a01b038216610e3c5760405162461bcd60e51b815260206004820152602360248201527f45524332303a207472616e7366657220746f20746865207a65726f206164647260448201526265737360e81b6064820152608401610559565b610e4783838361139b565b6001600160a01b03831660009081526033602052604090205481811015610ebf5760405162461bcd60e51b815260206004820152602660248201527f45524332303a207472616e7366657220616d6f756e7420657863656564732062604482015265616c616e636560d01b6064820152608401610559565b6001600160a01b03808516600090815260336020526040808220858503905591851681529081208054849290610ef6908490611aaa565b92505081905550826001600160a01b0316846001600160a01b03167fddf252ad1be2c89b69c2b068fc378daa952ba7f163c4a11628f55a4df523b3ef84604051610f4291815260200190565b60405180910390a3610d70565b6097546001600160a01b031633146105f65760405162461bcd60e51b815260040161055990611a2a565b7f4910fdfa16fed3260ed0e7147f7cc6da11a60208b5b9406d12a635614ffd91435460ff1615610fb157610fac836113e1565b505050565b826001600160a01b03166352d1902d6040518163ffffffff1660e01b815260040160206040518083038186803b158015610fea57600080fd5b505afa92505050801561101a575060408051601f3d908101601f19168201909252611017918101906118dd565b60015b61107d5760405162461bcd60e51b815260206004820152602e60248201527f45524331393637557067726164653a206e657720696d706c656d656e7461746960448201526d6f6e206973206e6f74205555505360901b6064820152608401610559565b600080516020611b4c83398151915281146110ec5760405162461bcd60e51b815260206004820152602960248201527f45524331393637557067726164653a20756e737570706f727465642070726f786044820152681a58589b195555525160ba1b6064820152608401610559565b50610fac83838361147d565b60655460ff166111415760405162461bcd60e51b815260206004820152601460248201527314185d5cd8589b194e881b9bdd081c185d5cd95960621b6044820152606401610559565b6065805460ff191690557f5db9ee0a495bf2e6ff9c91a7834c1ba4fdd244a5e8aa4e537bd38aeae4b073aa335b6040516001600160a01b03909116815260200160405180910390a1565b609780546001600160a01b038381166001600160a01b0319831681179093556040519116919082907f8be0079c531659141344cd1fd0a4f28419497f9722a3daafe3b4186f6b6457e090600090a35050565b60008054610100900460ff1615611224578160ff1660011480156112005750303b155b61121c5760405162461bcd60e51b8152600401610559906119dc565b506000919050565b60005460ff80841691161061124b5760405162461bcd60e51b8152600401610559906119dc565b506000805460ff191660ff92909216919091179055600190565b919050565b600054610100900460ff166112915760405162461bcd60e51b815260040161055990611a5f565b61078f82826114a2565b600054610100900460ff166112c25760405162461bcd60e51b815260040161055990611a5f565b6106c06114f0565b600054610100900460ff166112f15760405162461bcd60e51b815260040161055990611a5f565b6106c0611523565b600054610100900460ff166106c05760405162461bcd60e51b815260040161055990611a5f565b60655460ff16156113665760405162461bcd60e51b815260206004820152601060248201526f14185d5cd8589b194e881c185d5cd95960821b6044820152606401610559565b6065805460ff191660011790557f62e78cea01bee320cd4e420270b5ea74000d11b0c9f74754ebdbfc544b05a25861116e3390565b60655460ff1615610fac5760405162461bcd60e51b815260206004820152601060248201526f14185d5cd8589b194e881c185d5cd95960821b6044820152606401610559565b6001600160a01b0381163b61144e5760405162461bcd60e51b815260206004820152602d60248201527f455243313936373a206e657720696d706c656d656e746174696f6e206973206e60448201526c1bdd08184818dbdb9d1c9858dd609a1b6064820152608401610559565b600080516020611b4c83398151915280546001600160a01b0319166001600160a01b0392909216919091179055565b61148683611553565b6000825111806114935750805b15610fac57610d708383611593565b600054610100900460ff166114c95760405162461bcd60e51b815260040161055990611a5f565b81516114dc9060369060208501906116c0565b508051610fac9060379060208401906116c0565b600054610100900460ff166115175760405162461bcd60e51b815260040161055990611a5f565b6065805460ff19169055565b600054610100900460ff1661154a5760405162461bcd60e51b815260040161055990611a5f565b6106c03361118b565b61155c816113e1565b6040516001600160a01b038216907fbc7cd75a20ee27fd9adebab32041f755214dbc6bffa90cc0225b39da2e5c2d3b90600090a250565b60606001600160a01b0383163b6115fb5760405162461bcd60e51b815260206004820152602660248201527f416464726573733a2064656c65676174652063616c6c20746f206e6f6e2d636f6044820152651b9d1c9858dd60d21b6064820152608401610559565b600080846001600160a01b03168460405161161691906118f5565b600060405180830381855af49150503d8060008114611651576040519150601f19603f3d011682016040523d82523d6000602084013e611656565b606091505b509150915061167e8282604051806060016040528060278152602001611b6c60279139611687565b95945050505050565b60608315611696575081610509565b8251156116a65782518084602001fd5b8160405162461bcd60e51b81526004016105599190611911565b8280546116cc90611afa565b90600052602060002090601f0160209004810192826116ee5760008555611734565b82601f1061170757805160ff1916838001178555611734565b82800160010185558215611734579182015b82811115611734578251825591602001919060010190611719565b50611740929150611744565b5090565b5b808211156117405760008155600101611745565b80356001600160a01b038116811461126557600080fd5b600060208284031215611781578081fd5b61050982611759565b6000806040838503121561179c578081fd5b6117a583611759565b91506117b360208401611759565b90509250929050565b6000806000606084860312156117d0578081fd5b6117d984611759565b92506117e760208501611759565b9150604084013590509250925092565b60008060408385031215611809578182fd5b61181283611759565b9150602083013567ffffffffffffffff8082111561182e578283fd5b818501915085601f830112611841578283fd5b81358181111561185357611853611b35565b604051601f8201601f19908116603f0116810190838211818310171561187b5761187b611b35565b81604052828152886020848701011115611893578586fd5b82602086016020830137856020848301015280955050505050509250929050565b600080604083850312156118c6578182fd5b6118cf83611759565b946020939093013593505050565b6000602082840312156118ee578081fd5b5051919050565b60008251611907818460208701611ace565b9190910192915050565b6020815260008251806020840152611930816040850160208701611ace565b601f01601f19169190910160400192915050565b6020808252602c908201527f46756e6374696f6e206d7573742062652063616c6c6564207468726f7567682060408201526b19195b1959d85d1958d85b1b60a21b606082015260800190565b6020808252602c908201527f46756e6374696f6e206d7573742062652063616c6c6564207468726f7567682060408201526b6163746976652070726f787960a01b606082015260800190565b6020808252602e908201527f496e697469616c697a61626c653a20636f6e747261637420697320616c72656160408201526d191e481a5b9a5d1a585b1a5e995960921b606082015260800190565b6020808252818101527f4f776e61626c653a2063616c6c6572206973206e6f7420746865206f776e6572604082015260600190565b6020808252602b908201527f496e697469616c697a61626c653a20636f6e7472616374206973206e6f74206960408201526a6e697469616c697a696e6760a81b606082015260800190565b60008219821115611ac957634e487b7160e01b81526011600452602481fd5b500190565b60005b83811015611ae9578181015183820152602001611ad1565b83811115610d705750506000910152565b600181811c90821680611b0e57607f821691505b60208210811415611b2f57634e487b7160e01b600052602260045260246000fd5b50919050565b634e487b7160e01b600052604160045260246000fdfe360894a13ba1a3210667c828492db98dca3e2076cc3735a920a3ca505d382bbc416464726573733a206c6f772d6c6576656c2064656c65676174652063616c6c206661696c6564a26469706673582212206eaed559bf35af1842da600a84e9b4eb5f425afe04ce14d86200230406f2f8b264736f6c63430008040033496e697469616c697a61626c653a20636f6e747261637420697320616c726561",
  "linkReferences": {},
  "deployedLinkReferences": {}
}